:020000021000EC
:1000740041111307A06181460546A145014506C605
:1000840055229306A0610546A5450145B52993056A
:10009400A0050145E924B707008023A20700130047
:1000A4000000B24001454101828000009721000018
:1000B4009381015C13858180138601983306A640E1
:1000C40093050000EF00806A1705000013058559A9
:1000D400EF004054EF000060032501009305410048
:1000E40013060000EFF0DFF86F0000546780000093
:1000F400172500001305C5D797270000938747D716
:10010400638AA7001703FFFF130383EF630403004D
:10011400670003006780000017250000130545D51C
:10012400972500009385C5D4B385A54093D5254074
:1001340093072000B3C5F502638A05001703FFFF88
:10014400130303EC630403006700030067800000EB
:100154009727000083C747D263920704130101FF66
:1001640023261100EFF0DFF89707FFFF938747E995
:10017400638A0700171500001305058C9700FFFF1D
:10018400E78000E88320C1009307100017270000D0
:100194002304F7CE1301010167800000678000008B
:1001A4009707FFFF9387C7E563860702130101FFE3
:1001B40097250000938585CC171500001305C58786
:1001C400232611009700FFFFE78080E38320C1000E
:1001D400130101016FF05FF4935735008A05A207FC
:1001E400AE971D89B70503800547AE973315A70061
:1001F40088C3828063CC0500B70701009387072179
:10020400C607C983371703801CC38280C9679387D5
:1002140007ED0A053E951841B707008098C71300FB
:1002240000008280411126C2AA84060622C4858A5F
:10023400139424009387C183198A06C6558EA29706
:1002440090C393870185A29798C393D73540370706
:1002540003804107A207BA971387C18422971CC35E
:100264001387018493864700229714C313F77500FC
:100274008546B396E6001387418522972E85D4C31D
:10028400854514C3913FB71700808C472685112EEE
:10029400938781833E9408C0B24022449244410132
:1002A400828063C20502B70701009387A72CC607A3
:1002B400C983370700C0BA973A053E95B71700803F
:1002C40088C3CCC382809386018393151500AE96B0
:1002D40083D6060005667916758E138701839317F6
:1002E400250035C613F6160025C2138601843E96F2
:1002F40003280600138641853E9610422E97858278
:100304002320C8002310D700938601851387C18258
:100314003E97B6979C431443370600C03A05BE96F1
:10032400B70701009387A72CC607C983B2973E95E8
:10033400B717008088C3D4C314C3B707008023A2AF
:1003440007001300000082801386C1844DB7138711
:100354008183BA979843B707008098C3F9BF1316EF
:1003640025001387C18332971843937767009378E6
:100374001700A9CF81468147214333D8D50013788C
:1003840018008506C297E39A66FE118B11C3850790
:10039400A20793F70710BE9593870560638608004C
:1003A4008567938707E0AE9713171500938601833B
:1003B400369786072310F700B71700808C4793877A
:1003C400C18293858525B2978CC3E1BD93860530A0
:1003D40063840800938605701317150093870183BF
:1003E4003E9786062310D700C1BF63CF05003707A9
:1003F40001001307C74046074983B70700C03E976B
:100404003A052A973A8582801316250093874183FB
:10041400B2979C4313888184131E150072988C43F1
:10042400835708009388818493F617008DCE9386B2
:10043400C185B2968842A1468583898EB396D5003C
:1004440093F60610B6972310F800938741823E96E0
:100454001442B707008094C3B707008023A20700A3
:100464001300000045B7138341843293938681823D
:10047400B296032F0300944213838185A9E78D4527
:10048400B386B602B71700809C479387A7FB858283
:10049400BE969307001063040F00930700202310F7
:1004A400F800B70701009387C740C607C983B7059B
:1004B40000C0AE973A053E95B717008088C3D4C3F1
:1004C4001A9614C251BF3308C30003280800858359
:1004D400C2961388C1853298832E0800631E0F00CC
:1004E40021483308D841B395050193F50510AE971B
:1004F400F2982390F80075B725483308D841B3958E
:10050400050193F50520E5B7011122CC93874184B9
:100514001314250006CE26CA4AC84EC60D8AA297D1
:1005240090C393878182A29794C31387818493177E
:100534001500BA9723900700B717008083A9870096
:10054400AE842A89CE8555354967130707ED9397FD
:100554002400BA9788C3CE8501456939CE854A857A
:10056400A52893874182A29788C33707038093D72E
:10057400344013070702A207BA97138741832297CF
:100584001CC39D8805473317970098CB9387C18573
:100594003E9404C0F2406244D2444249B2490561E7
:1005A400828063CE0500B70701009387275CC607E6
:1005B400370700C0C983BA973A053E958280B707CA
:1005C40003801307F00F23AAE720B707008023A2B4
:1005D400070013000000828063CE0500B707010006
:1005E4009387875FC607370700C0C983BA973A0560
:1005F4003E9582809387818406053E9503570500C6
:10060400B7070380D8CBB707008023A207001300E5
:100614000000828093050500930600001306000085
:10062400130500006F004022130101FF9305000031
:10063400232481002326110013040500EF00002960
:10064400972700009387C78203A507008327C50364
:1006540063840700E780070013050400EF004038B7
:10066400130101FE971700009387C73D232C8100D7
:10067400171400001304C43C33848740232A9100D8
:100684002328210123263101232E11001354244051
:1006940093040000138907009309C0FF63109402B8
:1006A400032481018320C101832441010329010121
:1006B4008329C100130101026FF05FA3B3873403E0
:1006C40093841400B307F90083A7C7FFE7800700EA
:1006D4006FF0DFFC130101FF23248100232291002A
:1006E4001714000013048435971400009384043510
:1006F400B3848440232021012326110093D4244071
:100704001309000063109904171400001304043340
:10071400971400009384C432B3848440EFF01F9D87
:1007240093D4244013090000631899028320C10064
:1007340003248100832441000329010013010101E2
:100744006780000083270400130919001304440080
:10075400E78007006FF01FFB8327040013091900CB
:1007640013044400E78007006FF01FFC1303F0003C
:1007740013070500637EC3029377F7006390070AAB
:1007840063920508937606FF1376F600B386E600B7
:100794002320B7002322B7002324B7002326B70061
:1007A40013070701E366D7FE6314060067800000A1
:1007B400B306C3409396260097020000B386560002
:1007C4006780C6002307B700A306B7002306B70057
:1007D400A305B7002305B700A304B7002304B7009B
:1007E400A303B7002303B700A302B7002302B70093
:1007F400A301B7002301B700A300B7002300B7008B
:100804006780000093F5F50F93968500B3E5D50056
:1008140093960501B3E5D5006FF0DFF693962700B4
:1008240097020000B386560093820000E78006FA20
:1008340093800200938707FF3307F7403306F600DF
:10084400E378C3F66FF0DFF39717000093874762EE
:1008540003A7070013030500832787146396070083
:100864009307C7142324F71403A747001308F001C0
:100874001305F0FF634AE80493182700630C03028E
:10088400338517012324C50803A88718130610000D
:100894003316E6003368C80023A407192324D510AF
:1008A400930620006318D30083A6C71833E6C60056
:1008B40023A6C7181307170023A2E700B38717015D
:1008C40023A4B7001305000067800000130101FD95
:1008D400971700009387C759232E310183A9070076
:1008E400232C4101232A51012328610123261102CB
:1008F4002324810223229102232021032326710130
:10090400930A0500138A0500130B100083A48914AD
:10091400638C040003A444001309F4FF131424009B
:1009240033848400635809028320C10203248102B2
:1009340083244102032901028329C101032A81017D
:10094400832A4101032B0101832BC10013010103FD
:1009540067800000630C0A00832744106388470102
:100964001309F9FF1304C4FF6FF0DFFB03A744006E
:10097400832744001307F7FF631C270323A22401E2
:10098400E38007FE83A6841833172B0183AB44004E
:10099400B376D70063920602E780070003A74400FA
:1009A40083A78914E31477F7E38CF4FA6FF01FF646
:1009B400232204006FF0DFFC83A6C41883254408B7
:1009C4003377D7006318070013850A00E780070010
:1009D4006FF0DFFC13850500E78007006FF01FFC54
:1009E400930500001306000093060000130700009F
:1009F400930700009308D0057300000063520502BA
:100A0400130101FF23248100130405002326110090
:100A140033048040EF000001232085006F000000B4
:100A24006F000000971700009387C74403A50700D1
:040A340067800000D7
:040A380000000000BA
:041A3C00A401010000
:041A4000540101004C
:101A480000000000341D01009C1D0100041E01005F
:101A5800000000000000000000000000000000007E
:101A6800000000000000000000000000000000006E
:101A7800000000000000000000000000000000005E
:101A8800000000000000000000000000000000004E
:101A9800000000000000000000000000000000003E
:101AA800000000000000000000000000000000002E
:101AB800000000000000000000000000000000001E
:101AC800000000000000000000000000000000000E
:101AD80000000000000000000000000000000000FE
:101AE80000000000000000000100000000000000ED
:101AF8000E33CDAB34126DE6ECDE05000B000000B2
:101B080000000000000000000000000000000000CD
:101B180000000000000000000000000000000000BD
:101B280000000000000000000000000000000000AD
:101B3800000000000000000000000000000000009D
:04000003100000B039
:00000001FF
