:020000021000EC
:1000740041119307007D0D47AD462946A54501452D
:1000840006C67122A145014559241306A0058145E0
:1000940001457D29B707008023A207001300000053
:1000A400B240014541018280972100009381C158EB
:1000B40013858180138681893306A6409305000049
:1000C400EF0080671705000013058556EF004051C7
:1000D400EF00005D032501009305410013060000B5
:1000E400EFF01FF96F000051678000001725000032
:1000F400130585D497270000938707D4638AA70044
:100104001703FFFF1303C3EF630403006700030037
:100114006780000017250000130505D2972500000D
:10012400938585D1B385A54093D5254093072000B9
:10013400B3C5F502638A05001703FFFF130343ECFD
:100144006304030067000300678000009727000032
:1001540083C707CF63920704130101FF232611000D
:10016400EFF0DFF89707FFFF938787E9638A0700BB
:1001740017150000130505899700FFFFE78040E885
:100184008320C1009307100017270000230AF7CA31
:100194001301010167800000678000009707FFFFDB
:1001A400938707E663860702130101FF9725000082
:1001B400938545C9171500001305C584232611002E
:1001C4009700FFFFE780C0E38320C1001301010112
:1001D4006FF05FF49357350037070380A207410798
:1001E400BA9791C191071D8905473315A70088C3A4
:1001F4008280935735008A05A207AE971D89B705FB
:1002040003800547AE973315A70088C382807971B0
:1002140026D2B68422D49386C184131425004AD0EE
:100224004ECE06D652CCA29698C293864189A29607
:100234009CC2B7170080AE898C4732893AC695268E
:100244009387C188A29788C3B706038093D73940A0
:10025400C106A207B69713F679008546B396C60081
:1002640032471386C186229614C2098B138647002F
:10027400938581851385018349C7A29522959CC1E5
:1002840010C1D4C34E858545AD3793573940370ADD
:10029400038013070A01A207BA97854913777900E7
:1002A400938681863397E900A29698C29386418407
:1002B400A2969CC293860189A29613864700D8C34E
:1002C4004A85854590C2353713D73440130A0A024C
:1002D400938701872207A297529798C393878182B5
:1002E4003E9493F77400B399F90023203401225407
:1002F400B2500259F249624A2685925481454561B9
:10030400CDBD22951CC194C3A29590C1A5BF411136
:100314009387C1830A0522C406C62E843E950CC168
:1003240022858545453D22852244B24085454101CB
:10033400C9B563C20502B70701009387A735C6078D
:10034400C983370700C0BA973A053E95B7170080AE
:1003540088C3CCC3828013874186931725003E97B8
:100364001843C546138641869375F7016396D504F1
:100374001D879356370013968600B7060380B296FE
:100384001D8B05463317E600D8CA138781863E972E
:100394001443138701893E97184314C31387C188F4
:1003A400BA979843B707008098C3B707008023A281
:1003B4000700130000008280635307083307E040FE
:1003C4009356774093D5360013988500B70503807C
:1003D400C2959D8A0548B316D80094C9937607043C
:1003E40085E293864187BE969442858A91EA9386F4
:1003F4008186BE968C4293864184BE9694428CC27A
:100404009385C18293864189BE95BE9603A8050053
:100414009442B70800C03A053698B706010093869F
:10042400A635C606C982C6963695B716008088C218
:1004340023A2060123A00501B2970507B5B793755A
:100444001700137807049386C186D1C16302080498
:1004540013884187935517403E9893F8F5008325F8
:100464000800B3D5150185898DC193850189BE9591
:1004740003A8050093858186BE958C412320B8008E
:10048400BE968C42938681858DBF93854184C5B782
:1004940093880187BE9803A30800938881821388F8
:1004A4008187BE983E980323030083A8080003288D
:1004B400080093858187B378130113581800638467
:1004C400080013080808BE9523A0050155BF631250
:1004D400080413884187935517403E9893F8F50014
:1004E40083250800B3D5150185898DC193850189BC
:1004F400BE9503A8050093858186BE958C41232073
:10050400B800BE968C4293860183C5BD9385418411
:10051400C5B793880187BE9803A308009388818296
:1005240013888187BE983E980323030083A808009C
:100534000328080093858187B378130113581800A2
:100544006384080013080808BE9523A0050155BF5D
:100554001317250093874187BA9790C39387C18463
:10056400BA971386C1838A059C43B29590419A0732
:1005740093F707041E0693864186B297BA96B3078B
:10058400F0409CC293878187BA9723A00700B717CE
:1005940000808C479387C182938585253E970CC341
:1005A40049BB63CE0500B70701009387275CC607E4
:1005B400370700C0C983BA973A053E95828093876E
:1005C40081870A053E951841B707038023AAE720CF
:1005D400B707008023A207001300000082800000F8
:1005E40093050500930600001306000013050000A0
:1005F4006F004022130101FF9305000023248100B2
:100604002326110013040500EF000029972700009A
:100614009387878203A507008327C50363840700A4
:10062400E780070013050400EF004038130101FEC2
:10063400971700009387C73D232C810017140000EF
:100644001304C43C33848740232A910023282101C6
:1006540023263101232E1100135424409304000057
:10066400138907009309C0FF6310940203248101D6
:100674008320C10183244101032901018329C1008D
:10068400130101026FF05FA6B3873403938414004F
:10069400B307F90083A7C7FFE78007006FF0DFFC0B
:1006A400130101FF23248100232291001714000069
:1006B400130484359714000093840435B384844070
:1006C400232021012326110093D424401309000080
:1006D40063109904171400001304043397140000E2
:1006E4009384C432B3848440EFF01FA093D4244095
:1006F40013090000631899028320C10003248100B8
:1007040083244100032901001301010167800000D3
:10071400832704001309190013044400E780070029
:100724006FF01FFB8327040013091900130444000E
:10073400E78007006FF01FFC1303F00013070500A8
:10074400637EC3029377F7006390070A63920508F8
:10075400937606FF1376F600B386E6002320B700EF
:100764002322B7002324B7002326B7001307070169
:10077400E366D7FE6314060067800000B306C34037
:100784009396260097020000B38656006780C60041
:100794002307B700A306B7002306B700A305B700D5
:1007A4002305B700A304B7002304B700A303B700CD
:1007B4002303B700A302B7002302B700A301B700C5
:1007C4002301B700A300B7002300B700678000002F
:1007D40093F5F50F93968500B3E5D500939605013F
:1007E400B3E5D5006FF0DFF693962700970200007B
:1007F400B386560093820000E78006FA93800200D5
:10080400938707FF3307F7403306F600E378C3F610
:100814006FF0DFF3971700009387076203A70700C1
:100824001303050083278714639607009307C714EF
:100834002324F71403A747001308F0011305F0FF5E
:10084400634AE80493182700630C030233851701F5
:100854002324C50803A88718130610003316E600DE
:100864003368C80023A407192324D5109306200055
:100874006318D30083A6C71833E6C60023A6C71897
:100884001307170023A2E700B387170123A4B700B7
:100894001305000067800000130101FD9717000095
:1008A40093878759232E310183A90700232C410103
:1008B400232A5101232861012326110223248102C2
:1008C400232291022320210323267101930A050088
:1008D400138A0500130B100083A48914638C04008D
:1008E40003A444001309F4FF131424003384840084
:1008F400635809028320C102032481028324410234
:10090400032901028329C101032A8101832A4101A8
:10091400032B0101832BC100130101036780000035
:10092400630C0A0083274410638847011309F9FF05
:100934001304C4FF6FF0DFFB03A7440083274400C4
:100944001307F7FF631C270323A22401E38007FE98
:1009540083A6841833172B0183AB4400B376D700E6
:1009640063920602E780070003A7440083A7891463
:10097400E31477F7E38CF4FA6FF01FF623220400F4
:100984006FF0DFFC83A6C418832544083377D700AF
:100994006318070013850A00E78007006FF0DFFC87
:1009A40013850500E78007006FF01FFC9305000026
:1009B40013060000930600001307000093070000CD
:1009C4009308D0057300000063520502130101FF70
:1009D40023248100130405002326110033048040DE
:1009E400EF000001232085006F0000006F0000006D
:1009F400971700009387874403A5070067800000CA
:040A040000000000EE
:041A0800A001010038
:041A0C005001010084
:101A100000000000FC1C0100641D0100CC1D010041
:101A200000000000000000000000000000000000B6
:101A300000000000000000000000000000000000A6
:101A40000000000000000000000000000000000096
:101A50000000000000000000000000000000000086
:101A60000000000000000000000000000000000076
:101A70000000000000000000000000000000000066
:101A80000000000000000000000000000000000056
:101A90000000000000000000000000000000000046
:101AA0000000000000000000000000000000000036
:101AB0000000000000000000010000000000000025
:101AC0000E33CDAB34126DE6ECDE05000B000000EA
:101AD0000000000000000000000000000000000006
:101AE00000000000000000000000000000000000F6
:101AF00000000000000000000000000000000000E6
:101B000000000000000000000000000000000000D5
:04000003100000AC3D
:00000001FF
