:020000021000EC
:10007400411106C61307F00F22C4B707038023A259
:10008400E72023A2E730B717008080472285092C98
:100094002285252C2285B92C2285512422856D2484
:1000A4002285C12C2285DD2C2285312E22858926AC
:1000B4002285A526228579262285552E2285E92E9C
:1000C4002285012122851D21FD451D45492200006F
:1000D400972100009381C149138581801386418251
:1000E4003306A64093050000EF0080581705000072
:1000F40013058547EF004042EF00004E0325010041
:100104009305410013060000EFF09FF66F000042D4
:100114006780000017250000130585C59727000098
:10012400938707C5638AA7001703FFFF130343EDF3
:1001340063040300670003006780000017250000C4
:10014400130505C397250000938585C2B385A54093
:1001540093D5254093072000B3C5F502638A0500B3
:100164001703FFFF1303C3E96304030067000300DD
:10017400678000009727000083C707C063920704C5
:10018400130101FF23261100EFF0DFF89707FFFFAB
:10019400938707E7638A0700170500001305057AAC
:1001A4009700FFFFE780C0E58320C100930710009C
:1001B400172700002302F7BC130101016780000028
:1001C400678000009707FFFF938787E36386070232
:1001D400130101FF97250000938545BA1705000018
:1001E4001305C575232611009700FFFFE78040E142
:1001F4008320C100130101016FF05FF4BD47B38593
:10020400F50285473395A700B707038023AAA720E3
:1002140023A8A720054781471306803EB70603801D
:10022400639AB70023AAA6206391C50223A8A62037
:100234007D5709A8639BC70023A8A620E38AC5FEAF
:1002440091E10547BA958147E1BF8507D1BFBD4715
:10025400B385F50285473395A700B707038023AA22
:10026400A73023A8A730054781471306803EB70669
:100274000380639AB70023AAA6306391C50223A81A
:10028400A6307D5709A8639BC70023A8A630E38A3C
:10029400C5FE91E10547BA958147E1BF8507D1BF06
:1002A40063400502B70701009387472C858337070E
:1002B40000C093F7F73FBA97370700801CC38280CA
:1002C4004111C145014506C6153F63400502B70704
:1002D40001009387E72E8583370700C093F7F73F24
:1002E400BA97370700801CC382804111C545054574
:1002F40006C6293763400502B70701009387873193
:100304008583370700C093F7F73FBA973707008014
:100314001CC382804111C945094506C6C5356340E1
:100324000502B7070100938727348583370700C088
:1003340093F7F73FBA97370700801CC382804111B7
:10034400CD450D4506C65D3D63400502B707010076
:100354009387C7368583370700C093F7F73FBA976B
:10036400370700801CC382804111D145114506C660
:10037400713563400502B7070100938767398583A8
:10038400370700C093F7F73FBA97370700801CC3BD
:1003940082804111D545154506C68D356340050259
:1003A400B70701009387073C8583370700C093F79D
:1003B400F73FBA97370700801CC382804111D945A3
:1003C400194506C6253D63400502B707010093871A
:1003D400A73E8583370700C093F7F73FBA973707DF
:1003E40000801CC382804111DD451D4506C6393598
:1003F40063400502B70701009387474185833707A8
:1004040000C093F7F73FBA97370700801CC3828078
:100414004111E145014506C61D3D63400502B7078C
:1004240001009387E7438583370700C093F7F73FBD
:10043400BA97370700801CC382804111E545054502
:1004440006C6313563400502B70701009387874626
:100454008583370700C093F7F73FBA9737070080C3
:100464001CC382804111E945094506C6CD3363406A
:100474000502B7070100938727498583370700C022
:1004840093F7F73FBA97370700801CC38280411166
:10049400ED450D4506C6653B63400502B7070100FF
:1004A4009387C74B8583370700C093F7F73FBA9705
:1004B400370700801CC382804111F145114506C6EF
:1004C400793363400502B70701009387674E85833C
:1004D400370700C093F7F73FBA97370700801CC36C
:1004E40082804111F545154506C6953363400502E2
:1004F400B7070100938707518583370700C093F737
:10050400F73FBA97370700801CC382804111F94531
:10051400194506C62D3B000093050500930600000F
:1005240013060000130500006F004022130101FFB1
:1005340093050000232481002326110013040500E1
:10054400EF000029972700009387878203A50700FF
:100554008327C50363840700E780070013050400AD
:10056400EF004038130101FE971700009387C73D41
:10057400232C8100171400001304C43C33848740E7
:10058400232A91002328210123263101232E11003F
:100594001354244093040000138907009309C0FFF7
:1005A40063109402032481018320C1018324410147
:1005B400032901018329C100130101026FF05FB512
:1005C400B387340393841400B307F90083A7C7FFE8
:1005D400E78007006FF0DFFC130101FF2324810093
:1005E400232291001714000013048435971400008B
:1005F40093840435B38484402320210123261100ED
:1006040093D42440130900006310990417140000C4
:1006140013040433971400009384C432B3848440D5
:10062400EFF01FAF93D4244013090000631899021C
:100634008320C10003248100832441000329010095
:1006440013010101678000008327040013091900C6
:1006540013044400E78007006FF01FFB83270400A6
:100664001309190013044400E78007006FF01FFC0E
:100674001303F00013070500637EC3029377F700AA
:100684006390070A63920508937606FF1376F600D3
:10069400B386E6002320B7002322B7002324B70043
:1006A4002326B70013070701E366D7FE6314060089
:1006B40067800000B306C3409396260097020000AB
:1006C400B38656006780C6002307B700A306B700A9
:1006D4002306B700A305B7002305B700A304B7009A
:1006E4002304B700A303B7002303B700A302B70092
:1006F4002302B700A301B7002301B700A300B7008A
:100704002300B7006780000093F5F50F93968500EA
:10071400B3E5D50093960501B3E5D5006FF0DFF698
:100724009396270097020000B38656009382000038
:10073400E78006FA93800200938707FF3307F740A8
:100744003306F600E378C3F66FF0DFF39717000083
:100754009387076203A70700130305008327871401
:10076400639607009307C7142324F71403A74700CD
:100774001308F0011305F0FF634AE80493182700F7
:10078400630C0302338517012324C50803A88718C3
:10079400130610003316E6003368C80023A40719B3
:1007A4002324D510930620006318D30083A6C7180A
:1007B40033E6C60023A6C7181307170023A2E700D1
:1007C400B387170123A4B700130500006780000056
:1007D400130101FD9717000093878759232E3101D8
:1007E40083A90700232C4101232A510123286101F5
:1007F4002326110223248102232291022320210390
:1008040023267101930A0500138A0500130B1000B7
:1008140083A48914638C040003A444001309F4FF23
:100824001314240033848400635809028320C10212
:100834000324810283244102032901028329C10183
:10084400032A8101832A4101032B0101832BC10067
:100854001301010367800000630C0A00832744101E
:10086400638847011309F9FF1304C4FF6FF0DFFB2A
:1008740003A74400832744001307F7FF631C2703DF
:1008840023A22401E38007FE83A6841833172B01D7
:1008940083AB4400B376D70063920602E780070077
:1008A40003A7440083A78914E31477F7E38CF4FACD
:1008B4006FF01FF6232204006FF0DFFC83A6C41838
:1008C400832544083377D7006318070013850A008B
:1008D400E78007006FF0DFFC13850500E780070061
:1008E4006FF01FFC93050000130600009306000040
:1008F40013070000930700009308D005730000005D
:1009040063520502130101FF23248100130405002F
:100914002326110033048040EF00000123208500CA
:100924006F0000006F000000971700009387874452
:0809340003A507006780000025
:04093C0000000000B7
:04194000C8010100D9
:041944007801010025
:1019480000000000341C01009C1C0100041D010063
:10195800000000000000000000000000000000007F
:10196800000000000000000000000000000000006F
:10197800000000000000000000000000000000005F
:10198800000000000000000000000000000000004F
:10199800000000000000000000000000000000003F
:1019A800000000000000000000000000000000002F
:1019B800000000000000000000000000000000001F
:1019C800000000000000000000000000000000000F
:1019D80000000000000000000000000000000000FF
:1019E80000000000000000000100000000000000EE
:1019F8000E33CDAB34126DE6ECDE05000B000000B3
:101A080000000000000000000000000000000000CE
:101A180000000000000000000000000000000000BE
:101A280000000000000000000000000000000000AE
:101A3800000000000000000000000000000000009E
:04000003100000D415
:00000001FF
