:020000021000EC
:10007400411106C622C426C29307F00FB7040380B9
:10008400DCC09307300323A2F4109307000C13077A
:10009400000323A2F470B717038023A2E790B717D5
:1000A40000808047938404712285692A2285CD22A9
:1000B400228535242285AD2C2285F92422850D261E
:1000C4002285B52E2285C12E22852D212285492106
:1000D4002285E92922850D2B2285412B2285E523C2
:1000E4001305441F9125DD471307000498C0FD172D
:1000F400F5FF3707038093060004930720031306D4
:10010400477114C2FD17F5FF930720031306077107
:1001140014C2FD17F5FFD5B797210000938141B1B3
:1001240013858180138641823306A640930500001F
:10013400EF00407B170500001305456AEF000065DA
:10014400EF00C07003250100930541001306000071
:10015400EFF01FF26F00C064678000001715000005
:100164001305052D971700009387872C638AA70032
:100174001703FFFF1303C3E86304030067000300CE
:1001840067800000171500001305852A97150000E5
:100194009385052AB385A54093D525409307200070
:1001A400B3C5F502638A05001703FFFF130343E594
:1001B40063040300670003006780000097170000D2
:1001C40083C7872763920704130101FF23261100C5
:1001D400EFF0DFF89707FFFF938787E2638A070052
:1001E400171500001305C59C9700FFFFE78040E149
:1001F4008320C1009307100017170000230EF72275
:100204001301010167800000678000009707FFFF6A
:10021400938707DF63860702130101FF9715000028
:100224009385C52117150000130585982326110011
:100234009700FFFFE780C0DC8320C10013010101A8
:100244006FF05FF463400502B707010093878726C8
:100254008583370700C093F7F73FBA9737070080C5
:100264001CC382800547B707038098CB85463707B0
:100274000380930720031306470114C2FD17F5FFFB
:10028400930720031306070114C2FD17F5FFD5B722
:1002940063400502B70701009387472B858337071F
:1002A40000C093F7F73FBA97370700801CC38280DA
:1002B4004147B707038098CB98CBC14637070380E3
:1002C400930720031306470114C2FD17F5FF930794
:1002D40020031306070114C2FD17F5FFD5B76340C9
:1002E4000502B7070100938727308583370700C0CD
:1002F40093F7F73FBA97370700801CC382800947FA
:10030400B707038098CB98CB98CB98CB894637070F
:100314000380930720031306470114C2FD17F5FF5A
:10032400930720031306070114C2FD17F5FFD5B781
:1003340063400502B7070100938747358583370774
:1003440000C093F7F73FBA97370700801CC3828039
:1003540013070002B707038098CB98CB98CB98CBB0
:1003640098CB9306000237070380930720031306F4
:10037400470114C2FD17F5FF930720031306070175
:1003840014C2FD17F5FFD5B763400502B707010096
:100394009387C73A8583370700C093F7F73FBA9727
:1003A400370700801CC382801147B707038098CBAE
:1003B40098CB98CB98CB98CB98CB98CB91463707D2
:1003C4000380930720031306470114C2FD17F5FFAA
:1003D400930720031306070114C2FD17F5FFD5B7D1
:1003E40063400502B70701009387474085833707B9
:1003F40000C093F7F73FBA97370700801CC3828089
:1004040013070004B707038098CB98CB98CB98CBFD
:1004140098CB98CB98CB98CB9306000437070380EE
:10042400930720031306470114C2FD17F5FF930732
:1004340020031306070114C2FD17F5FFD5B7634067
:100444000502B7070100938727468583370700C055
:1004540093F7F73FBA97370700801CC38280B7072A
:100464000380214798CBA1462547C10794C37D1734
:1004740075FF37070380A14693072003130647013E
:1004840014C2FD17F5FF930720031306070114C2D6
:10049400FD17F5FFD5B763400502B7070100938741
:1004A400A74B8583370700C093F7F73FBA97370701
:1004B40000801CC38280B70703801307000898CB11
:1004C400930600082947C10794C37D1775FF3707B2
:1004D400038093060008930720031306470114C200
:1004E400FD17F5FF930720031306070114C2FD1738
:1004F400F5FFD5B763400502B7070100938787511D
:100504008583370700C093F7F73FBA973707008012
:100514001CC38280B7070380054723A8E7108546DC
:1005240031479387071194C37D1775FF37070380FD
:100534008546930720031306471114C2FD17F5FFE0
:10054400930720031306071114C2FD17F5FFD5B74F
:1005540063400502B7070100938747578583370730
:1005640000C093F7F73FBA97370700801CC3828017
:10057400B7070380414723A8E710C146394793874B
:10058400071194C37D1775FF37070380C14693078E
:1005940020031306471114C2FD17F5FF9307200328
:1005A4001306071114C2FD17F5FFD5B76340050202
:1005B400B70701009387075D8583370700C093F76A
:1005C400F73FBA97370700801CC38280B7070380C0
:1005D400094723A8E71089463D479387071194C329
:1005E4007D1775FF37070380894693072003130699
:1005F400471114C2FD17F5FF9307200313060711D3
:1006040014C2FD17F5FFD5B763400502B707010013
:100614009387C7628583370700C093F7F73FBA977C
:10062400370700801CC38280B707038013070002CA
:1006340023A8E7109306000245479387071194C344
:100644007D1775FF37070380930600029307200385
:100654001306471114C2FD17F5FF93072003130671
:10066400071114C2FD17F5FFD5B763400502B7079C
:1006740001009387E7688583370700C093F7F73F46
:10068400BA97370700801CC38280B717038041479D
:1006940023A8E790C14649479387079194C37D17E0
:1006A40075FF37170380C14693072003130647914C
:1006B40014C2FD17F5FF930720031306079114C214
:1006C400FD17F5FFD5B763400502B707010093870F
:1006D400A76E8583370700C093F7F73FBA973707AC
:1006E40000801CC38280B71703801307000223A86D
:1006F400E7909306000251479387079194C37D17AF
:1007040075FF37170380930600029307200313062F
:10071400479114C2FD17F5FF9307200313060791B1
:1007240014C2FD17F5FFD5B763400502B7070100F2
:100734009387C774C607370700C0C983BA973717AA
:1007440000801CC348C38280B707038013070008D6
:1007540023A8E7709306000855479387077194C34D
:100764007D1775FF3707038093060008930720035E
:100774001306477114C2FD17F5FF930720031306F0
:10078400077114C2FD17F5FFD5B7000093050500E6
:100794009306000013060000130500006F004022BA
:1007A400130101FF93050000232481002326110077
:1007B40013040500EF00002997170000938747C72B
:1007C40003A507008327C50363840700E7800700A8
:1007D40013050400EF004038130101FE97170000D1
:1007E40093878782232C81001714000013048481CB
:1007F40033848740232A91002328210123263101B1
:10080400232E11001354244093040000138907007D
:100814009309C0FF63109402032481018320C10162
:1008240083244101032901018329C1001301010229
:100834006FF09F92B387340393841400B307F900D5
:1008440083A7C7FFE78007006FF0DFFC130101FFF8
:100854002324810023229100170400001304447A06
:10086400970400009384C479B38484402320210135
:100874002326110093D42440130900006310990423
:10088400170400001304C47797040000938484774A
:10089400B3848440EFF05F8C93D4244013090000A8
:1008A400631899028320C10003248100832441003A
:1008B400032901001301010167800000832704005C
:1008C4001309190013044400E78007006FF01FFBAD
:1008D400832704001309190013044400E780070068
:1008E4006FF01FFC1303F00013070500637EC302BF
:1008F4009377F7006390070A63920508937606FFDF
:100904001376F600B386E6002320B7002322B7004F
:100914002324B7002326B70013070701E366D7FE95
:100924006314060067800000B306C3409396260054
:1009340097020000B38656006780C6002307B700FD
:10094400A306B7002306B700A305B7002305B70025
:10095400A304B7002304B700A303B7002303B7001D
:10096400A302B7002302B700A301B7002301B70015
:10097400A300B7002300B7006780000093F5F50FCC
:1009840093968500B3E5D50093960501B3E5D500AC
:100994006FF0DFF69396270097020000B3865600A7
:1009A40093820000E78006FA93800200938707FF92
:1009B4003307F7403306F600E378C3F66FF0DFF34E
:1009C400971700009387C7A603A707001303050022
:1009D40083278714639607009307C7142324F71407
:1009E40003A747001308F0011305F0FF634AE80466
:1009F40093182700630C0302338517012324C508C9
:100A040003A88718130610003316E6003368C800DD
:100A140023A407192324D510930620006318D300B8
:100A240083A6C71833E6C60023A6C7181307170002
:100A340023A2E700B387170123A4B700130500001E
:100A440067800000130101FD971700009387479EFC
:100A5400232E310183A90700232C4101232A5101AC
:100A640023286101232611022324810223229102D7
:100A74002320210323267101930A0500138A05000C
:100A8400130B100083A48914638C040003A4440092
:100A94001309F4FF131424003384840063580902F7
:100AA4008320C10203248102832441020329010219
:100AB4008329C101032A8101832A4101032B0101F6
:100AC400832BC1001301010367800000630C0A003B
:100AD40083274410638847011309F9FF1304C4FFF3
:100AE4006FF0DFFB03A74400832744001307F7FFDD
:100AF400631C270323A22401E38007FE83A6841832
:100B040033172B0183AB4400B376D70063920602FC
:100B1400E780070003A7440083A78914E31477F749
:100B2400E38CF4FA6FF01FF6232204006FF0DFFC6D
:100B340083A6C418832544083377D70063180700B5
:100B440013850A00E78007006FF0DFFC13850500BA
:100B5400E78007006FF01FFC9305000013060000F8
:100B64009306000013070000930700009308D005C4
:100B74007300000063520502130101FF2324810066
:100B8400130405002326110033048040EF00000104
:100B9400232085006F0000006F00000097170000FD
:0C0BA4009387478903A5070067800000C5
:040BB0000000000041
:0410000010020100D9
:04100400C001010026
:1010080000000000F41201005C130100C413010089
:1010180000000000000000000000000000000000C8
:1010280000000000000000000000000000000000B8
:1010380000000000000000000000000000000000A8
:101048000000000000000000000000000000000098
:101058000000000000000000000000000000000088
:101068000000000000000000000000000000000078
:101078000000000000000000000000000000000068
:101088000000000000000000000000000000000058
:101098000000000000000000000000000000000048
:1010A8000000000000000000010000000000000037
:1010B8000E33CDAB34126DE6ECDE05000B000000FC
:1010C8000000000000000000000000000000000018
:1010D8000000000000000000000000000000000008
:1010E80000000000000000000000000000000000F8
:1010F80000000000000000000000000000000000E8
:040000031000011CCC
:00000001FF
