:020000021000EC
:1000740041119306403805468145014506C6612C69
:10008400930640381546914505457124930640383A
:100094002546A14509454124930640383546B145D6
:1000A4000D45952C930640384546C1451145A52478
:1000B400930640385546D1451545B12C9306403832
:1000C4006546E1451945812C930640387546F1454E
:1000D4001D459124930600040D4689450145EF0012
:1000E400C06A930610041D4699450545EF00E06972
:1000F400930620042D46A9450945EF00006993069F
:1001040030043D46B9450D45EF0020689306400490
:100114004D46C9451145EF004067930650045D46BE
:10012400D94515459D25930660046D46E945194555
:10013400A92D930670047D46F9451D45B9258145D1
:100144000145A921814505459121814509453D295F
:1001540081450D452529814511450D2981451545C3
:100164003521814519451D2181451D45052101463E
:10017400930500040145F126B707008023A2070078
:1001840013000000B2400145410182809721000024
:10019400938101AA13858180138681C03306A6400A
:1001A40093050000EF00900D170500001305857CF2
:1001B400EF004077EF001003032501009305410091
:1001C40013060000EFF0DFEA6F000077678000009D
:1001D400171500001305C5259717000093874725B9
:1001E400638AA7001703FFFF130383E1630403007B
:1001F40067000300678000001715000013054523FE
:10020400971500009385C522B385A54093D5254055
:1002140093072000B3C5F502638A05001703FFFFA7
:10022400130303DE63040300670003006780000018
:100234009717000083C7472063920704130101FF47
:1002440023261100EFF0DFF89707FFFF938747DBC2
:10025400638A070017150000130505AF9700FFFF19
:10026400E78000DA8320C10093071000171700000D
:100274002304F71C1301010167800000678000005C
:100284009707FFFF9387C7D763860702130101FF10
:10029400971500009385851A171500001305C5AA44
:1002A400232611009700FFFFE78080D58320C1003B
:1002B400130101016FF05FF4B71700809C473717F3
:1002C40000803E951C47E3EFA7FE828093573500DC
:1002D4008A05A207AE971D89B70503800547AE9727
:1002E4003315A70088C3828063CC0500B7070100DB
:1002F40093874730C607C983371703801CC382809E
:10030400938781AE0A053E951841B707008098C7C8
:10031400130000008280797122D49387819E131484
:10032400250006D626D24AD04ECE52CCA29794C3EC
:10033400B71700802E8A8C4732C605490923938754
:10034400818EA29788C3B7070380938907019354CA
:100354003A0093777A001387418AB317F9002297FA
:10036400A204CE941CC39CC0528581458537138753
:1003740081AA2297938744FF1CC33246138781A422
:100384002297C11404C393573600138781901D8AA2
:100394003316C900229710C3A207CE9713878198FA
:1003A40090C32297938647FF14C31387818C2297A7
:1003B400938607FF14C345671307474523A8C7FE61
:1003C4003A94C1071CC0B250225492540259F249C3
:1003D400624A4561828063C20502B70701009387C0
:1003E400E73FC607C983370700C0BA973A053E9569
:1003F400B717008088C3CCC38280138781A2931768
:1004040025003E971843138681A2635C07049386F4
:100414008190BE968C4293868198BE96944233070F
:10042400E0408CC2938541849386819EBE95BE969E
:1004340003A805009442B70800C03A053698B706E9
:1004440001009386E63FC606C982C6963695B7165E
:10045400008088C223A2060123A00501B2977D175C
:100464000DA005EB138781903E9714431387818C6D
:100474003E97184314C31387818EBA979843B707DE
:10048400008098C3B707008023A207001300000070
:10049400828093763700A9EA13084002E344E8F81F
:1004A400C56693864645BE9694428C429386819057
:1004B400BE969442F58DE205E18563190701BDD12D
:1004C4009386819ABE9685458CC2A9BF1388819A6A
:1004D4003E98032808009386819A060891C105086E
:1004E400BE9623A006013DBF8545639BB600938657
:1004F400418ABE968C42938681A4BE969442E9B703
:1005040089456399B602938581A8BE958C4193561B
:100514002740B3D6D500858A99CA9386818CBE9626
:100524008C4293868190BE96944294C1E5BD938695
:100534008198F5B79386418ABE968C42938681AAA8
:100544006DBFB706040093860680AE0506069317B2
:100554002500F58D138781A8130606203E97B295D2
:100564000CC3138781A23E97930680FB14C31387A1
:10057400819A3E9723200700371700800C47138782
:10058400418493858525BA978CC3B1B50A059387B1
:100594004186AA9793F5F50F8CC393874188AA9750
:1005A40023A0070093878196AA979843938781ACE9
:1005B4003E9514418547B397D7002328F7FE8280E0
:1005C40063CF0500B70601009386265EC606C9827E
:1005D400B70700C0BE963A05AA963685828013876F
:1005E40041880A052A971C439385418813F817000C
:1005F40013F6F70F6304081413085002631E06056C
:10060400130650226392C7042320070013878196A0
:100614002A971043138781AC2A97032807000547BC
:10062400331707012328E6FE37070080232207003B
:10063400130000002E9585071CC1B707008023A274
:1006440007001300000051BF138781A62A971043A7
:100654003707008010C3F9BF138781962A970328B0
:100664000700938881ACAA98138681922A96038EF8
:100674000800C548032708000323060063921705F2
:10068400938881A0AA9883A808006313130B854854
:100694003393C8013357C701232268FC058B41EF0C
:1006A40023201601138781942A9710431387819C72
:1006B4002A970328070005473317070158CA9DBF27
:1006C400CD486398170105463317C6012320E8FC7B
:1006D400D1BF93082021E3E7F8FC9308201163FFBE
:1006E400F802938841861383D7EE1D46AA981353C4
:1006F40013003303664003A6080033566600058AD8
:1007040011E61386D7ED930848FC19E2930808FC18
:1007140005463317C60123A0E80069B70948E37307
:10072400F8F83357C7010603058B1A9718C29DBF03
:100734009307102185BF93071011ADB7130740022B
:100744006311E602138781962A971043138781ACBD
:100754002A9703280700054733170701232AE6FED3
:10076400D1BD91E7138781922A972320070013872D
:1007740081942A9710431387819C2A9703280700A2
:1007840005473317070118CA75B5011122CC9387A1
:1007940081A01314250006CE26CA4AC84EC652C4E8
:1007A40056C2A29794C3B717008003AA8700AE84E9
:1007B4003289D285AA8AD528938781A6A29788C32D
:1007C40093D63400B7090380138709029387819471
:1007D400A206BA96A29794C39387819CA29713F713
:1007E40074002685814598C3D534D2855685C93B86
:1007F400938781AE131729003E978A0408C3BE94D9
:1008040088C0D2850145CD34135739009389090432
:10081400938781962207A2974E9798C3938781ACBA
:100824003E94937779001CC06244F240D244B249AA
:10083400224A924A4A8542498145056141BC63CEB8
:100844000500B71701009387E785C607370700C07F
:10085400C983BA973A053E95828029E1411122C4A1
:1008640003A481A806C69307F00E05801374F40F41
:1008740063EC87000965130505713D3C130604010B
:100884009305000401457539B707008023A20700CA
:1008940013000000B240224441018280B707008067
:1008A40023A2070013000000828063CE0500B7175F
:1008B40001009387A78CC607370700C0C983BA977E
:1008C4003A053E958280411122C406C626C2994744
:1008D4002A8463EAA7029317250013878192BA97A3
:1008E40088439374F50F93D744003D893E95A947F7
:1008F4003305F502EFF05F9C13861400930514048E
:10090400130514003D39814522854931B70700801C
:1009140023A2070013000000B24022449244410184
:100924008280000093050500930600001306000072
:10093400130500006F004022130101FF930500001E
:10094400232481002326110013040500EF0000294D
:10095400971700009387C7AD03A507008327C50336
:1009640063840700E780070013050400EF004038A4
:10097400130101FE9707000093870769232C810068
:10098400170400001304046833848740232A910069
:100994002328210123263101232E1100135424403E
:1009A40093040000138907009309C0FF63109402A5
:1009B400032481018320C10183244101032901010E
:1009C4008329C100130101026FF05F80B3873403F0
:1009D40093841400B307F90083A7C7FFE7800700D7
:1009E4006FF0DFFC130101FF232481002322910017
:1009F400170400001304C460970400009384446047
:100A0400B3848440232021012326110093D424405D
:100A14001309000063109904170400001304445ED2
:100A2400970400009384045EB3848440EFF00FFACB
:100A340093D4244013090000631899028320C10051
:100A440003248100832441000329010013010101CF
:100A5400678000008327040013091900130444006D
:100A6400E78007006FF01FFB8327040013091900B8
:100A740013044400E78007006FF01FFC1303F00029
:100A840013070500637EC3029377F7006390070A98
:100A940063920508937606FF1376F600B386E600A4
:100AA4002320B7002322B7002324B7002326B7004E
:100AB40013070701E366D7FE63140600678000008E
:100AC400B306C3409396260097020000B3865600EF
:100AD4006780C6002307B700A306B7002306B70044
:100AE400A305B7002305B700A304B7002304B70088
:100AF400A303B7002303B700A302B7002302B70080
:100B0400A301B7002301B700A300B7002300B70077
:100B14006780000093F5F50F93968500B3E5D50043
:100B240093960501B3E5D5006FF0DFF693962700A1
:100B340097020000B386560093820000E78006FA0D
:100B440093800200938707FF3307F7403306F600CC
:100B5400E378C3F66FF0DFF3971700009387478DB0
:100B640003A7070013030500832787146396070070
:100B74009307C7142324F71403A747001308F001AD
:100B84001305F0FF634AE80493182700630C03027B
:100B9400338517012324C50803A8871813061000FA
:100BA4003316E6003368C80023A407192324D5109C
:100BB400930620006318D30083A6C71833E6C60043
:100BC40023A6C7181307170023A2E700B38717014A
:100BD40023A4B7001305000067800000130101FD82
:100BE400971700009387C784232E310183A9070038
:100BF400232C4101232A51012328610123261102B8
:100C0400232481022322910223202103232671011C
:100C1400930A0500138A0500130B100083A489149A
:100C2400638C040003A444001309F4FF1314240088
:100C340033848400635809028320C102032481029F
:100C440083244102032901028329C101032A81016A
:100C5400832A4101032B0101832BC10013010103EA
:100C640067800000630C0A008327441063884701EF
:100C74001309F9FF1304C4FF6FF0DFFB03A744005B
:100C8400832744001307F7FF631C270323A22401CF
:100C9400E38007FE83A6841833172B0183AB44003B
:100CA400B376D70063920602E780070003A74400E7
:100CB40083A78914E31477F7E38CF4FA6FF01FF633
:100CC400232204006FF0DFFC83A6C41883254408A4
:100CD4003377D7006318070013850A00E7800700FD
:100CE4006FF0DFFC13850500E78007006FF01FFC41
:100CF400930500001306000093060000130700008C
:100D0400930700009308D0057300000063520502A6
:100D1400130101FF2324810013040500232611007D
:100D240033048040EF000001232085006F000000A1
:100D34006F000000970700009387C76F03A50700A3
:040D440067800000C4
:040D480000000000A7
:041000008402010065
:0410040034020100B1
:1010080000000000F41201005C130100C413010089
:1010180000000000000000000000000000000000C8
:1010280000000000000000000000000000000000B8
:1010380000000000000000000000000000000000A8
:101048000000000000000000000000000000000098
:101058000000000000000000000000000000000088
:101068000000000000000000000000000000000078
:101078000000000000000000000000000000000068
:101088000000000000000000000000000000000058
:101098000000000000000000000000000000000048
:1010A8000000000000000000010000000000000037
:1010B8000E33CDAB34126DE6ECDE05000B000000FC
:1010C8000000000000000000000000000000000018
:1010D8000000000000000000000000000000000008
:1010E80000000000000000000000000000000000F8
:1010F80000000000000000000000000000000000E8
:040000031000019058
:00000001FF
