:020000021000EC
:1000B00097210000938181EA171500001305056B55
:1000C000171600001306866F098E8145EF00403039
:1000D0001705000013052525EF00A021EF002029BA
:1000E00002452C000146EF00600C6F004021828029
:1000F000171500001305856697170000938707669C
:100100006389A7001703FFFF1303C3EF6303030013
:1001100002838280171500001305456497150000BF
:100120009385C563898D8D858947B3C5F50281C9DE
:100130001703FFFF130303ED6303030002838280B1
:100140009717000083C7076395EB411106E4EFF0B2
:100150003FFA9707FFFF9387E7EA89CB171500005F
:10016000130545819700FFFFE780C0E9A26085473E
:10017000171700002300F7604101828082809707F3
:10018000FFFF938727E88DC34111971500009385E2
:10019000E55E170500001305E57D06E49700FFFF07
:1001A000E78040E6A26041016FF0DFF6011122EC2A
:1001B00000101300000013000000130000001300E3
:1001C00000001300000013000000130000001300E3
:1001D00000001300000013000000130000001300D3
:1001E00000001300000013000000130000001300C3
:1001F00000001300000013000000130000001300B3
:1002000000001300000013000000130000001300A2
:100210000000130000001300000013000000130092
:100220000000130000001300000013000000130082
:100230000000130000001300000013000000130072
:10024000000013000000B7270110B1072334F4FEAB
:10025000833784FE3707400098C313000000130063
:1002600000001300000013000000833784FE3707EE
:10027000400098C3130000001300000013000000AA
:100280001300000013000000130000001300000022
:100290001300000013000000130000001300000012
:1002A0001300000013000000130000001300000002
:1002B00013000000130000001300000013000000F2
:1002C00013000000130000001300000013000000E2
:1002D00013000000130000001300000013000000D2
:1002E000130000001300000081473E856264056131
:1002F0008280AA858146014601456F0000184111A0
:10030000814522E006E42A84EF00C01D9717000013
:100310009387C74488633C6D91C382972285EF0021
:1003200000637971971700009387C7CE22F01714E6
:1003300000001304A4CD3384874026EC4AE84EE441
:1003400006F40D8481443E89E159631A94000274D5
:10035000A270E2644269A26945616FF05FD9B38718
:1003600034038504CA9783B787FF8297F9BF0111C9
:1003700022E826E4171400001304C4C897140000F0
:10038000938444C8818C4AE006EC8D84014963174C
:100390009902171400001304E4C697140000938414
:1003A000E4C6818CEFF0BFD48D840149631D9900B0
:1003B000E2604264A2640269056182801C600509F2
:1003C00021048297E9B71C60050921048297F9BFCF
:1003D0003D482A876371C8029377F700C1E3BDE106
:1003E000937606FF3D8ABA960CE30CE74107E36D6E
:1003F000D7FE11E28280B306C8408A069702000049
:1004000096966780A6002307B700A306B7002306C9
:10041000B700A305B7002305B700A304B700230462
:10042000B700A303B7002303B700A302B70023025A
:10043000B700A301B7002301B700A300B700230052
:10044000B700828093F5F50F93968500D58D93962E
:100450000501D58D93960502D58D59B79396270042
:100460009702000096968682E78026FA9680C1174A
:100470001D8F3E96E371C8F89DB7971700009387CC
:10048000E72D98632A838337871F89E7930707201F
:10049000233CF71E98477D487D556344E804630A72
:1004A0000302131837003E982338C81083A8073179
:1004B00005463B16E600B3E8C80023A817312338E9
:1004C000D82089466317D30083A64731558E23AAC7
:1004D000C7309B06170009070E0794C7BA978CE32D
:1004E000014582805D7197170000938727274EF49E
:1004F00083B9070052F056EC5AE886E4A2E026FCE5
:100500004AF85EE4AA8A2E8A054B03B4891F01C803
:100510000444FD3413993400229963DD0400A6607D
:100520000664E2744279A279027AE26A426BA26BB3
:100530006161828063090A0083370921638547016D
:10054000FD346119D9BF1C4483360901FD37639618
:10055000970204C4F5D6032704313B169B00832B76
:100560008400718F012709EF8296184483B7891F91
:10057000E31D77F9E306F4FC49BF23380900D9BF2E
:100580008327443183350911F18F812781E756850F
:100590008296E1BF2E858296C9BF9C612310F5002B
:1005A0009C652311F5009C495CC1DC492314F500CE
:1005B0009C4D2315F500DC4D2316F5009C71231787
:1005C000F5009C791CE9BC613CE99C5D3CE5BC659F
:1005D0001CEDBC6D1CF5BC751CFD8280411122E038
:1005E00006E42A84EF000038BB078040A260026462
:1005F0001CC17D5541018280AA882E85B285368630
:10060000BA8673000000635405006FF03FFD8280DE
:100610004111B28601472E86AA851305004006E4E3
:10062000EFF09FFDA26001254101828041113687D4
:10063000B2862E86AA851305800306E4EFF0DFFB61
:10064000A260012541018280B28601472E86AA85DB
:100650001305E0036FF05FFAB28601472E86AA8584
:100660001305F0036FF05FF9B28601472E86AA8565
:10067000130500046FF05FF8357126E50A86AE8435
:100680000147AA8581461305000506ED22E9EFF032
:10069000BFF62A848A852685EFF03FF01B0504000B
:1006A000EA604A64AA640D618280357126E50A8693
:1006B000AE840147AA8581461305E04006ED22E994
:1006C000EFF09FF32A848A852685EFF01FED1B0546
:1006D0000400EA604A64AA640D618280357126E5EF
:1006E0000A86AE840147AA8581461305F04006EDCF
:1006F00022E9EFF07FF02A848A852685EFF0FFE972
:100700001B050400EA604A64AA640D6182803571A9
:1007100026E53687B2848A862E86AA851305F004DC
:1007200006ED22E9EFF05FED2A848A852685EFF059
:10073000DFE61B050400EA604A64AA640D6182805A
:1007400041112E860147AA8581461305904006E493
:10075000EFF09FEAA26001254101828041113687B6
:10076000B2862E86AA851305000306E4EFF0DFE8C3
:10077000A2600125410182804111AA85014781467D
:1007800001461305900306E4EFF01FE7A260012580
:100790004101828041112E860147AA8581461305B9
:1007A000104006E4EFF05FE5A26001254101828080
:1007B0004111AA850147814601461305204006E400
:1007C000EFF09FE3A260012541018280411106E420
:1007D000EF004019A260B1471CC17D5541018280E4
:1007E000411106E4EF000018A260AD471CC17D5521
:1007F0004101828005458280411106E4EF008016A8
:10080000A260D9471CC17D5541018280411106E497
:10081000EF004015A260A9471CC17D5541018280AF
:1008200019712C0086FCEFF03FE5FD576306F500DB
:1008300032451B55D5400589E6700961828041111A
:10084000AA850147814601461305900A06E4EFF0A8
:10085000BFDAA260012541018280797122F017146C
:1008600000001304A4F41C6026EC06F4AA8489E7B3
:1008700081452285EFF0BFFC0A858145EFF03FFC02
:10088000186082671464A270998F37470F001307AE
:100890000724B387E7022267027423B80400158F88
:1008A00023BC040023B404007D55BA979CE0E264A5
:1008B00045618280231405002330050001458280B4
:1008C0007D5582807D5582807D5582807D558280D8
:1008D0000145828089476304F5007D558280374554
:1008E0000F00130505248280011122E8171400006F
:1008F0001304C4E71C6026E406ECAA8495E70147CC
:100900008146014681451305600DEFF0FFCEFD578E
:100910006318F5007D55E2604264A264056182803F
:100920009717000023B4A7E40C6001478146A69501
:1009300001461305600DEFF03FCC1C60BE94E31B35
:1009400095FC171700002333A7E23E85E9B7411154
:10095000AA850147814601461305D00506E4EFF05C
:10096000BFC901A0971700009387C7DF8863828003
:040970000000000083
:081000007E0101000000000068
:0810080040010100000000009E
:101010000000000000000000481501000000000072
:10102000F815010000000000A816010000000000F3
:1010300000000000000000000000000000000000B0
:1010400000000000000000000000000000000000A0
:101050000000000000000000000000000000000090
:101060000000000000000000000000000000000080
:101070000000000000000000000000000000000070
:101080000000000000000000000000000000000060
:101090000000000000000000000000000000000050
:1010A0000000000000000000000000000000000040
:1010B0000000000000000000000000000000000030
:1010C0000000000000000000000000000000000020
:1010D0000000000000000000000000000000000010
:1010E0000000000000000000000000000000000000
:1010F00000000000000000000100000000000000EF
:101100000E33CDAB34126DE6ECDE05000B000000B3
:1011100000000000000000000000000000000000CF
:1011200000000000000000000000000000000000BF
:1011300000000000000000000000000000000000AF
:10114000000000000000000000000000000000009F
:10175800101001000000000010100100000000003F
:04000003100000B039
:00000001FF
