:020000021000EC
:10007400411106C61307F00F22C4B707038023A259
:10008400E76023A2E770B717008080472285092C18
:1000940022852D2C22858D242285692422854D2CB0
:1000A4002285E92C2285092622852D262285892E62
:1000B4002285AD2E22854D262285E9262285CD2E48
:1000C40022852929228589219305F0031D45412292
:1000D400972100009381C14B13858180138641824F
:1000E4003306A64093050000EF00405A17050000B0
:1000F40013054549EF000044EF00C04F03250100FC
:100104009305410013060000EFF09FF66F00C04313
:100114006780000017250000130585C79727000096
:10012400938707C7638AA7001703FFFF130343EDF1
:1001340063040300670003006780000017250000C4
:10014400130505C597250000938585C4B385A5408F
:1001540093D5254093072000B3C5F502638A0500B3
:100164001703FFFF1303C3E96304030067000300DD
:10017400678000009727000083C707C263920704C3
:10018400130101FF23261100EFF0DFF89707FFFFAB
:10019400938707E7638A0700170500001305C57BEB
:1001A4009700FFFFE780C0E58320C100930710009C
:1001B400172700002302F7BE130101016780000026
:1001C400678000009707FFFF938787E36386070232
:1001D400130101FF97250000938545BC1705000016
:1001E40013058577232611009700FFFFE78040E180
:1001F4008320C100130101016FF05FF4BD47B38593
:10020400F50285473395A700B707038023AAA760A3
:1002140023A8A760054781471306803EB7060380DD
:10022400639AB70023AAA6606391C50223A8A660B7
:100234007D5709A8639BC70023A8A660E38AC5FE6F
:1002440091E10547BA958147E1BF8507D1BFBD4715
:10025400B385F50285473395A700B707038023AA22
:10026400A77023A8A770054781471306803EB706E9
:100274000380639AB70023AAA6706391C50223A8DA
:10028400A6707D5709A8639BC70023A8A670E38ABC
:10029400C5FE91E10547BA958147E1BF8507D1BF06
:1002A40063400502B70701009387472C858337070E
:1002B40000C093F7F73FBA97370700801CC38280CA
:1002C400411193050003014506C60D3F6340050235
:1002D400B70701009387072F8583370700C093F77B
:1002E400F73FBA97370700801CC3828041119305FA
:1002F4001003054506C6193763400502B707010018
:100304009387C7318583370700C093F7F73FBA97C0
:10031400370700801CC382804111930520030945DF
:1003240006C6E93D63400502B70701009387873499
:100334008583370700C093F7F73FBA9737070080E4
:100344001CC382804111930530030D4506C67D35DB
:1003540063400502B7070100938747378583370752
:1003640000C093F7F73FBA97370700801CC3828019
:10037400411193054003114506C649356340050202
:10038400B70701009387073A8583370700C093F7BF
:10039400F73FBA97370700801CC382804111930549
:1003A4005003154506C6993D63400502B707010091
:1003B4009387C73C8583370700C093F7F73FBA9705
:1003C400370700801CC382804111930560031945DF
:1003D40006C62D3563400502B70701009387873FA2
:1003E4008583370700C093F7F73FBA973707008034
:1003F4001CC382804111930570031D4506C6FD3B55
:1004040063400502B7070100938747428583370796
:1004140000C093F7F73FBA97370700801CC3828068
:10042400411193058003014506C615356340050255
:10043400B7070100938707458583370700C093F703
:10044400F73FBA97370700801CC382804111930598
:100454009003054506C6E53B63400502B707010066
:100464009387C7478583370700C093F7F73FBA9749
:10047400370700801CC3828041119305A0030945FE
:1004840006C6F13363400502B70701009387874A24
:100494008583370700C093F7F73FBA973707008083
:1004A4001CC3828041119305B0030D4506C6453334
:1004B40063400502B70701009387474D85833707DB
:1004C40000C093F7F73FBA97370700801CC38280B8
:1004D40041119305C003114506C6953B63400502CF
:1004E400B7070100938707508583370700C093F748
:1004F400F73FBA97370700801CC3828041119305E8
:10050400D003154506C6A13363400502B7070100B1
:100514009387C7528583370700C093F7F73FBA978D
:10052400370700801CC3828041119305E0031945FD
:1005340006C6313B93050500930600001306000030
:10054400130500006F004022130101FF9305000012
:10055400232481002326110013040500EF00002941
:10056400972700009387C78203A507008327C50345
:1005740063840700E780070013050400EF00403898
:10058400130101FE971700009387C73D232C8100B8
:10059400171400001304C43C33848740232A9100B9
:1005A4002328210123263101232E11001354244032
:1005B40093040000138907009309C0FF6310940299
:1005C400032481018320C101832441010329010102
:1005D4008329C100130101026FF09FB3B387340371
:1005E40093841400B307F90083A7C7FFE7800700CB
:1005F4006FF0DFFC130101FF23248100232291000B
:1006040017140000130484359714000093840435F0
:10061400B3848440232021012326110093D4244051
:100624001309000063109904171400001304043321
:10063400971400009384C432B3848440EFF05FAD18
:1006440093D4244013090000631899028320C10045
:1006540003248100832441000329010013010101C3
:100664006780000083270400130919001304440061
:10067400E78007006FF01FFB8327040013091900AC
:1006840013044400E78007006FF01FFC1303F0001D
:1006940013070500637EC3029377F7006390070A8C
:1006A40063920508937606FF1376F600B386E60098
:1006B4002320B7002322B7002324B7002326B70042
:1006C40013070701E366D7FE631406006780000082
:1006D400B306C3409396260097020000B3865600E3
:1006E4006780C6002307B700A306B7002306B70038
:1006F400A305B7002305B700A304B7002304B7007C
:10070400A303B7002303B700A302B7002302B70073
:10071400A301B7002301B700A300B7002300B7006B
:100724006780000093F5F50F93968500B3E5D50037
:1007340093960501B3E5D5006FF0DFF69396270095
:1007440097020000B386560093820000E78006FA01
:1007540093800200938707FF3307F7403306F600C0
:10076400E378C3F66FF0DFF39717000093874762CF
:1007740003A7070013030500832787146396070064
:100784009307C7142324F71403A747001308F001A1
:100794001305F0FF634AE80493182700630C03026F
:1007A400338517012324C50803A8871813061000EE
:1007B4003316E6003368C80023A407192324D51090
:1007C400930620006318D30083A6C71833E6C60037
:1007D40023A6C7181307170023A2E700B38717013E
:1007E40023A4B7001305000067800000130101FD76
:1007F400971700009387C759232E310183A9070057
:10080400232C4101232A51012328610123261102AB
:100814002324810223229102232021032326710110
:10082400930A0500138A0500130B100083A489148E
:10083400638C040003A444001309F4FF131424007C
:1008440033848400635809028320C1020324810293
:1008540083244102032901028329C101032A81015E
:10086400832A4101032B0101832BC10013010103DE
:1008740067800000630C0A008327441063884701E3
:100884001309F9FF1304C4FF6FF0DFFB03A744004F
:10089400832744001307F7FF631C270323A22401C3
:1008A400E38007FE83A6841833172B0183AB44002F
:1008B400B376D70063920602E780070003A74400DB
:1008C40083A78914E31477F7E38CF4FA6FF01FF627
:1008D400232204006FF0DFFC83A6C4188325440898
:1008E4003377D7006318070013850A00E7800700F1
:1008F4006FF0DFFC13850500E78007006FF01FFC35
:10090400930500001306000093060000130700007F
:10091400930700009308D00573000000635205029A
:10092400130101FF23248100130405002326110071
:1009340033048040EF000001232085006F00000095
:100944006F000000971700009387C74403A50700B2
:0409540067800000B8
:04095800000000009B
:04195C00C8010100BD
:041960007801010009
:1019680000000000541C0100BC1C0100241D0100E3
:10197800000000000000000000000000000000005F
:10198800000000000000000000000000000000004F
:10199800000000000000000000000000000000003F
:1019A800000000000000000000000000000000002F
:1019B800000000000000000000000000000000001F
:1019C800000000000000000000000000000000000F
:1019D80000000000000000000000000000000000FF
:1019E80000000000000000000000000000000000EF
:1019F80000000000000000000000000000000000DF
:101A080000000000000000000100000000000000CD
:101A18000E33CDAB34126DE6ECDE05000B00000092
:101A280000000000000000000000000000000000AE
:101A3800000000000000000000000000000000009E
:101A4800000000000000000000000000000000008E
:101A5800000000000000000000000000000000007E
:04000003100000D415
:00000001FF
