:020000021000EC
:1000740041119306401F1306401FA545014506C6BE
:10008400392C1306401F9305C05D01458522B7072F
:10009400008023A2070013000000B2400145410183
:1000A40082800000972100009381812C1385818038
:1000B4001386C1833306A64093050000EF00403B3E
:1000C400170500001305452AEF000025EF00C03096
:1000D400032501009305410013060000EFF05FF9CA
:1000E4006F00C0246780000017250000130545A891
:1000F400972700009387C7A7638AA7001703FFFF0A
:10010400130303F063040300670003006780000027
:10011400172500001305C5A597250000938545A55F
:10012400B385A54093D5254093072000B3C5F502B8
:10013400638A05001703FFFF130383EC63040300C2
:1001440067000300678000009727000083C7C7A2E9
:1001540063920704130101FF23261100EFF0DFF877
:100164009707FFFF9387C7E9638A07001705000015
:100174001305C55C9700FFFFE78080E88320C1007A
:1001840093071000172700002308F79E13010101AD
:1001940067800000678000009707FFFF938747E6AA
:1001A40063860702130101FF972500009385059DCF
:1001B4001705000013058558232611009700FFFF3B
:1001C400E78000E48320C100130101016FF05FF4B4
:1001D400935735008A05A207AE971D89B70503809A
:1001E4000547AE973315A70088C382800A05938715
:1001F4008182AA978CC3938741823E9510C18280E5
:100204001318E50063C10502B70701009387A7220D
:10021400C607370700C0C983BA97C297371700804B
:100224001CC34CC382800A059387818393864183D0
:10023400AA97AA9698439C4213868183B9C7938749
:100244004182AA979C4323A006003E979386C182CD
:10025400AA969442B7170080329594C3B707010059
:100264009387A722C607370600C0C98318C1B716EB
:100274000080B297D8C2C2979CC2D8C2B707008088
:1002840023A2070013000000828085479CC2938646
:100294008182AA969C42938601833E9755BF411161
:1002A40026C2AA8422C4938741821394240006C6DA
:1002B400A29794C393878182A29713F7750085460A
:1002C400B396E60090C393D73540A2071387018302
:1002D4003386D700229710C337060020B2971387BE
:1002E400C1822297B6972E8585451CC3D535938741
:1002F4004183A29723A00700B71700808C479387F8
:1003040081833E94938585250CC02244B240268582
:1003140092444101F5B500009305050093060000E1
:1003240013060000130500006F004022130101FFB3
:1003340093050000232481002326110013040500E3
:10034400EF000029972700009387878203A5070001
:100354008327C50363840700E780070013050400AF
:10036400EF004038130101FE971700009387C73D43
:10037400232C8100171400001304C43C33848740E9
:10038400232A91002328210123263101232E110041
:100394001354244093040000138907009309C0FFF9
:1003A40063109402032481018320C1018324410149
:1003B400032901018329C100130101026FF09FD2B7
:1003C400B387340393841400B307F90083A7C7FFEA
:1003D400E78007006FF0DFFC130101FF2324810095
:1003E400232291001714000013048435971400008D
:1003F40093840435B38484402320210123261100EF
:1004040093D42440130900006310990417140000C6
:1004140013040433971400009384C432B3848440D7
:10042400EFF05FCC93D424401309000063189902C1
:100434008320C10003248100832441000329010097
:1004440013010101678000008327040013091900C8
:1004540013044400E78007006FF01FFB83270400A8
:100464001309190013044400E78007006FF01FFC10
:100474001303F00013070500637EC3029377F700AC
:100484006390070A63920508937606FF1376F600D5
:10049400B386E6002320B7002322B7002324B70045
:1004A4002326B70013070701E366D7FE631406008B
:1004B40067800000B306C3409396260097020000AD
:1004C400B38656006780C6002307B700A306B700AB
:1004D4002306B700A305B7002305B700A304B7009C
:1004E4002304B700A303B7002303B700A302B70094
:1004F4002302B700A301B7002301B700A300B7008C
:100504002300B7006780000093F5F50F93968500EC
:10051400B3E5D50093960501B3E5D5006FF0DFF69A
:100524009396270097020000B3865600938200003A
:10053400E78006FA93800200938707FF3307F740AA
:100544003306F600E378C3F66FF0DFF39717000085
:100554009387076203A70700130305008327871403
:10056400639607009307C7142324F71403A74700CF
:100574001308F0011305F0FF634AE80493182700F9
:10058400630C0302338517012324C50803A88718C5
:10059400130610003316E6003368C80023A40719B5
:1005A4002324D510930620006318D30083A6C7180C
:1005B40033E6C60023A6C7181307170023A2E700D3
:1005C400B387170123A4B700130500006780000058
:1005D400130101FD9717000093878759232E3101DA
:1005E40083A90700232C4101232A510123286101F7
:1005F4002326110223248102232291022320210392
:1006040023267101930A0500138A0500130B1000B9
:1006140083A48914638C040003A444001309F4FF25
:100624001314240033848400635809028320C10214
:100634000324810283244102032901028329C10185
:10064400032A8101832A4101032B0101832BC10069
:100654001301010367800000630C0A008327441020
:10066400638847011309F9FF1304C4FF6FF0DFFB2C
:1006740003A74400832744001307F7FF631C2703E1
:1006840023A22401E38007FE83A6841833172B01D9
:1006940083AB4400B376D70063920602E780070079
:1006A40003A7440083A78914E31477F7E38CF4FACF
:1006B4006FF01FF6232204006FF0DFFC83A6C4183A
:1006C400832544083377D7006318070013850A008D
:1006D400E78007006FF0DFFC13850500E780070063
:1006E4006FF01FFC93050000130600009306000042
:1006F40013070000930700009308D005730000005F
:1007040063520502130101FF232481001304050031
:100714002326110033048040EF00000123208500CC
:100724006F0000006F000000971700009387874454
:0807340003A507006780000027
:04073C0000000000B9
:041740009C01010007
:041744004C01010053
:1017480000000000341A01009C1A0100041B01006B
:101758000000000000000000000000000000000081
:101768000000000000000000000000000000000071
:101778000000000000000000000000000000000061
:101788000000000000000000000000000000000051
:101798000000000000000000000000000000000041
:1017A8000000000000000000000000000000000031
:1017B8000000000000000000000000000000000021
:1017C8000000000000000000000000000000000011
:1017D8000000000000000000000000000000000001
:1017E80000000000000000000100000000000000F0
:1017F8000E33CDAB34126DE6ECDE05000B000000B5
:1018080000000000000000000000000000000000D0
:1018180000000000000000000000000000000000C0
:1018280000000000000000000000000000000000B0
:1018380000000000000000000000000000000000A0
:04000003100000A841
:00000001FF
