:020000021000EC
:1000740041119306007D2D46A945014506C623ACD2
:100084000182AD221306A0059305200401455926DB
:10009400B707008023A2070013000000B240014507
:1000A40041018280972100009381814D13858180D5
:1000B400138601883306A64093050000EF00005C18
:1000C400170500001305054BEF00C045EF008051F4
:1000D400032501009305410013060000EFF05FF9CA
:1000E4006F0080456780000017250000130545C98F
:1000F400972700009387C7C8638AA7001703FFFFE9
:10010400130303F063040300670003006780000027
:10011400172500001305C5C697250000938545C61D
:10012400B385A54093D5254093072000B3C5F502B8
:10013400638A05001703FFFF130383EC63040300C2
:1001440067000300678000009727000083C7C7C3C8
:1001540063920704130101FF23261100EFF0DFF877
:100164009707FFFF9387C7E9638A07001705000015
:100174001305857D9700FFFFE78080E88320C10099
:1001840093071000172700002300F7C01301010193
:1001940067800000678000009707FFFF938747E6AA
:1001A40063860702130101FF97250000938505BEAE
:1001B4001705000013054579232611009700FFFF5A
:1001C400E78000E48320C100130101016FF05FF4B4
:1001D400935735008A05A207AE971D89B70503809A
:1001E4000547AE973315A70088C38280797122D45E
:1001F400938701861314250006D626D24AD04ECE04
:1002040052CCA29794C3B71700802E8A8C4732C66B
:100214000549492C93870184A29788C3B7070380B3
:100224009389070193543A0093777A0013874183A3
:10023400B317F9002297A204CE941CC39CC0528524
:1002440081457937138781872297938744FF1CC39D
:1002540032461387C1862297C11404C393573600CC
:10026400138741841D8A3316C900229710C3A2073D
:10027400CE971387418590C32297938647FF14C373
:100284001387C1832297938607FF14C31387418280
:1002940023A8C7FE3A94C1071CC0B25022549254FA
:1002A4000259F249624A4561828063C20502B70776
:1002B40001009387272DC607C983370700C0BA9763
:1002C4003A053E95B717008088C3CCC38280138754
:1002D4008186931725003E97184313868186635CB5
:1002E400070493864184BE968C4293864185BE96CC
:1002F40094423307E0408CC29385818293860186C1
:10030400BE95BE9603A805009442B70800C03A05FE
:100314003698B70601009386262DC606C982C6966E
:100324003695B716008088C223A2060123A00501D2
:10033400B2977D170DA005EB138741843E971443B4
:100344001387C1833E97184314C313870184BA9754
:100354009843B707008098C3B707008023A207001B
:1003640013000000828093763700A1EA130840024C
:10037400E344E8F893864182BE9694428C42938685
:100384004184BE969442F58DE205E1856319070127
:10039400A5D593868185BE9685458CC2B1BF138849
:1003A40081853E980328080093868185060891C1BB
:1003B4000508BE9623A0060181B78545639BB60058
:1003C40093864183BE968C429386C186BE969442A0
:1003D400E9B789456399B60293854187BE958C41F7
:1003E40093562740B3D6D500858A99CA9386C1838C
:1003F400BE968C4293864184BE96944294C1EDBDD0
:1004040093864185F5B793864183BE968C42938645
:1004140081876DBFB706040093860680AE05060685
:1004240093172500F58D13874187130606203E9701
:10043400B2950CC3138781863E97930680FB14C341
:10044400138781853E9723200700371700800C47C8
:100454001387818293858525BA978CC3B9B5B7066E
:10046400040093860680AE0593172500F58D138747
:1004740041873E979385E57F0CC3138781863E971A
:10048400930680FB14C3138781853E9723200700BE
:10049400371700800C471387818293858525BA9787
:1004A4008CC321B563CE0500B70701009387474C81
:1004B400C607370700C0C983BA973A053E958280BC
:1004C400938781850A053E951C41411122C406C6C5
:1004D40093F6071003A7818385CE15E71306500A08
:1004E4009305100401453D3783A78183850723AC19
:1004F400F182B707008023A2070013000000B24076
:10050400224441018280930510040145893FE9BFDB
:10051400854693052004E30AD7FE37070380232A80
:10052400F720C1BF930505009306000013060000E1
:10053400130500006F004022130101FF9305000022
:10054400232481002326110013040500EF00002951
:10055400972700009387C78203A507008327C50355
:1005640063840700E780070013050400EF004038A8
:10057400130101FE971700009387C73D232C8100C8
:10058400171400001304C43C33848740232A9100C9
:100594002328210123263101232E11001354244042
:1005A40093040000138907009309C0FF63109402A9
:1005B400032481018320C101832441010329010112
:1005C4008329C100130101026FF0DFB1B387340343
:1005D40093841400B307F90083A7C7FFE7800700DB
:1005E4006FF0DFFC130101FF23248100232291001B
:1005F4001714000013048435971400009384043501
:10060400B3848440232021012326110093D4244061
:100614001309000063109904171400001304043331
:10062400971400009384C432B3848440EFF09FABEA
:1006340093D4244013090000631899028320C10055
:1006440003248100832441000329010013010101D3
:100654006780000083270400130919001304440071
:10066400E78007006FF01FFB8327040013091900BC
:1006740013044400E78007006FF01FFC1303F0002D
:1006840013070500637EC3029377F7006390070A9C
:1006940063920508937606FF1376F600B386E600A8
:1006A4002320B7002322B7002324B7002326B70052
:1006B40013070701E366D7FE631406006780000092
:1006C400B306C3409396260097020000B3865600F3
:1006D4006780C6002307B700A306B7002306B70048
:1006E400A305B7002305B700A304B7002304B7008C
:1006F400A303B7002303B700A302B7002302B70084
:10070400A301B7002301B700A300B7002300B7007B
:100714006780000093F5F50F93968500B3E5D50047
:1007240093960501B3E5D5006FF0DFF693962700A5
:1007340097020000B386560093820000E78006FA11
:1007440093800200938707FF3307F7403306F600D0
:10075400E378C3F66FF0DFF39717000093874762DF
:1007640003A7070013030500832787146396070074
:100774009307C7142324F71403A747001308F001B1
:100784001305F0FF634AE80493182700630C03027F
:10079400338517012324C50803A8871813061000FE
:1007A4003316E6003368C80023A407192324D510A0
:1007B400930620006318D30083A6C71833E6C60047
:1007C40023A6C7181307170023A2E700B38717014E
:1007D40023A4B7001305000067800000130101FD86
:1007E400971700009387C759232E310183A9070067
:1007F400232C4101232A51012328610123261102BC
:100804002324810223229102232021032326710120
:10081400930A0500138A0500130B100083A489149E
:10082400638C040003A444001309F4FF131424008C
:1008340033848400635809028320C10203248102A3
:1008440083244102032901028329C101032A81016E
:10085400832A4101032B0101832BC10013010103EE
:1008640067800000630C0A008327441063884701F3
:100874001309F9FF1304C4FF6FF0DFFB03A744005F
:10088400832744001307F7FF631C270323A22401D3
:10089400E38007FE83A6841833172B0183AB44003F
:1008A400B376D70063920602E780070003A74400EB
:1008B40083A78914E31477F7E38CF4FA6FF01FF637
:1008C400232204006FF0DFFC83A6C41883254408A8
:1008D4003377D7006318070013850A00E780070001
:1008E4006FF0DFFC13850500E78007006FF01FFC45
:1008F4009305000013060000930600001307000090
:10090400930700009308D0057300000063520502AA
:10091400130101FF23248100130405002326110081
:1009240033048040EF000001232085006F000000A5
:100934006F000000971700009387C74403A50700C2
:0409440067800000C8
:0409480000000000AB
:04194C009C010100F9
:041950004C01010045
:1019580000000000441C0100AC1C0100141D010023
:10196800000000000000000000000000000000006F
:10197800000000000000000000000000000000005F
:10198800000000000000000000000000000000004F
:10199800000000000000000000000000000000003F
:1019A800000000000000000000000000000000002F
:1019B800000000000000000000000000000000001F
:1019C800000000000000000000000000000000000F
:1019D80000000000000000000000000000000000FF
:1019E80000000000000000000000000000000000EF
:1019F80000000000000000000100000000000000DE
:101A08000E33CDAB34126DE6ECDE05000B000000A2
:101A180000000000000000000000000000000000BE
:101A280000000000000000000000000000000000AE
:101A3800000000000000000000000000000000009E
:101A4800000000000000000000000000000000008E
:04000003100000A841
:00000001FF
