:020000021000EC
:10007400411106C61307F00F22C4B7070380D8C383
:1000840023A2E710B7170080804722851924228510
:1000940035242285892C2285A52C2285792C22853C
:1000A400D1242285ED242285012E22851D2E228530
:1000B400B12E22854926228565262285F9262285A8
:1000C400D52E22852929BD451D459D2A972100004D
:1000D4009381014913858180138641823306A640AA
:1000E40093050000EF00C057170500001305C5462F
:1000F400EF008041EF00404D0325010093054100CE
:1001040013060000EFF0DFF66F0040416780000047
:10011400172500001305C5C497270000938747C41B
:10012400638AA7001703FFFF130383ED630403002F
:10013400670003006780000017250000130545C20F
:10014400972500009385C5C1B385A54093D5254067
:1001540093072000B3C5F502638A05001703FFFF68
:10016400130303EA630403006700030067800000CD
:100174009727000083C747BF63920704130101FF59
:1001840023261100EFF0DFF89707FFFF938747E777
:10019400638A070017050000130545799700FFFFE0
:1001A400E78000E68320C1009307100017270000B2
:1001B400230CF7BA13010101678000006780000077
:1001C4009707FFFF9387C7E363860702130101FFC5
:1001D40097250000938585B917050000130505755B
:1001E400232611009700FFFFE78080E18320C100F0
:1001F400130101016FF05FF4BD47B385F502854734
:100204003395A700B7070380C8CB88CB0547814740
:100214001306803EB70603806398B700C8CA639F7D
:10022400C50088CA7D5701A8639AC70088CAE38BB2
:10023400C5FE91E10547BA958147F9BF8507E9BF36
:10024400BD47B385F50285473395A700B7070380FB
:1002540023AAA71023A8A710054781471306803EA9
:10026400B7060380639AB70023AAA6106391C50258
:1002740023A8A6107D5709A8639BC70023A8A6102E
:10028400E38AC5FE91E10547BA958147E1BF850739
:10029400D1BF63400502B70701009387672B8583AD
:1002A400370700C093F7F73FBA97370700801CC39E
:1002B400828041118145014506C63D3F63400502E8
:1002C400B70701009387072E8583370700C093F78C
:1002D400F73FBA97370700801CC3828041118545D8
:1002E400054506C6113F63400502B7070100938721
:1002F400A7308583370700C093F7F73FBA973707CE
:1003040000801CC3828041118945094506C6ED352C
:1003140063400502B7070100938747338583370796
:1003240000C093F7F73FBA97370700801CC3828059
:1003340041118D450D4506C6C13563400502B70719
:1003440001009387E7358583370700C093F7F73FAC
:10035400BA97370700801CC382804111914511452B
:1003640006C6593D63400502B707010093878738E5
:100374008583370700C093F7F73FBA9737070080A4
:100384001CC3828041119545154506C6B5356340A9
:100394000502B70701009387273B8583370700C011
:1003A40093F7F73FBA97370700801CC38280411147
:1003B4009945194506C6893563400502B70701000A
:1003C4009387C73D8583370700C093F7F73FBA97F4
:1003D400370700801CC3828041119D451D4506C618
:1003E400213D63400502B707010093876740858379
:1003F400370700C093F7F73FBA97370700801CC34D
:1004040082804111A145014506C61D3D6340050298
:10041400B7070100938707438583370700C093F725
:10042400F73FBA97370700801CC382804111A54566
:10043400054506C6313563400502B70701009387B9
:10044400A7458583370700C093F7F73FBA97370767
:1004540000801CC382804111A945094506C6CD33DD
:1004640063400502B7070100938747488583370730
:1004740000C093F7F73FBA97370700801CC3828008
:100484004111AD450D4506C6653B63400502B707FE
:1004940001009387E74A8583370700C093F7F73F46
:1004A400BA97370700801CC382804111B1451145BA
:1004B40006C6793363400502B70701009387874D69
:1004C4008583370700C093F7F73FBA973707008053
:1004D4001CC382804111B545154506C6953363405A
:1004E4000502B7070100938727508583370700C0AB
:1004F40093F7F73FBA97370700801CC382804111F6
:10050400B945194506C62D3B930505009306000021
:1005140013060000130500006F004022130101FFC1
:1005240093050000232481002326110013040500F1
:10053400EF000029972700009387878203A507000F
:100544008327C50363840700E780070013050400BD
:10055400EF004038130101FE971700009387C73D51
:10056400232C8100171400001304C43C33848740F7
:10057400232A91002328210123263101232E11004F
:100584001354244093040000138907009309C0FF07
:1005940063109402032481018320C1018324410157
:1005A400032901018329C100130101026FF01FB661
:1005B400B387340393841400B307F90083A7C7FFF8
:1005C400E78007006FF0DFFC130101FF23248100A3
:1005D400232291001714000013048435971400009B
:1005E40093840435B38484402320210123261100FD
:1005F40093D42440130900006310990417140000D5
:1006040013040433971400009384C432B3848440E5
:10061400EFF0DFAF93D4244013090000631899026C
:100624008320C100032481008324410003290100A5
:1006340013010101678000008327040013091900D6
:1006440013044400E78007006FF01FFB83270400B6
:100654001309190013044400E78007006FF01FFC1E
:100664001303F00013070500637EC3029377F700BA
:100674006390070A63920508937606FF1376F600E3
:10068400B386E6002320B7002322B7002324B70053
:100694002326B70013070701E366D7FE6314060099
:1006A40067800000B306C3409396260097020000BB
:1006B400B38656006780C6002307B700A306B700B9
:1006C4002306B700A305B7002305B700A304B700AA
:1006D4002304B700A303B7002303B700A302B700A2
:1006E4002302B700A301B7002301B700A300B7009A
:1006F4002300B7006780000093F5F50F93968500FB
:10070400B3E5D50093960501B3E5D5006FF0DFF6A8
:100714009396270097020000B38656009382000048
:10072400E78006FA93800200938707FF3307F740B8
:100734003306F600E378C3F66FF0DFF39717000093
:100744009387076203A70700130305008327871411
:10075400639607009307C7142324F71403A74700DD
:100764001308F0011305F0FF634AE8049318270007
:10077400630C0302338517012324C50803A88718D3
:10078400130610003316E6003368C80023A40719C3
:100794002324D510930620006318D30083A6C7181A
:1007A40033E6C60023A6C7181307170023A2E700E1
:1007B400B387170123A4B700130500006780000066
:1007C400130101FD9717000093878759232E3101E8
:1007D40083A90700232C4101232A51012328610105
:1007E40023261102232481022322910223202103A0
:1007F40023267101930A0500138A0500130B1000C8
:1008040083A48914638C040003A444001309F4FF33
:100814001314240033848400635809028320C10222
:100824000324810283244102032901028329C10193
:10083400032A8101832A4101032B0101832BC10077
:100844001301010367800000630C0A00832744102E
:10085400638847011309F9FF1304C4FF6FF0DFFB3A
:1008640003A74400832744001307F7FF631C2703EF
:1008740023A22401E38007FE83A6841833172B01E7
:1008840083AB4400B376D70063920602E780070087
:1008940003A7440083A78914E31477F7E38CF4FADD
:1008A4006FF01FF6232204006FF0DFFC83A6C41848
:1008B400832544083377D7006318070013850A009B
:1008C400E78007006FF0DFFC13850500E780070071
:1008D4006FF01FFC93050000130600009306000050
:1008E40013070000930700009308D005730000006D
:1008F40063520502130101FF232481001304050040
:100904002326110033048040EF00000123208500DA
:100914006F0000006F000000971700009387874462
:0809240003A507006780000035
:04092C0000000000C7
:04193000C4010100ED
:041934007401010039
:1019380000000000241C01008C1C0100F41C0100A4
:10194800000000000000000000000000000000008F
:10195800000000000000000000000000000000007F
:10196800000000000000000000000000000000006F
:10197800000000000000000000000000000000005F
:10198800000000000000000000000000000000004F
:10199800000000000000000000000000000000003F
:1019A800000000000000000000000000000000002F
:1019B800000000000000000000000000000000001F
:1019C800000000000000000000000000000000000F
:1019D80000000000000000000100000000000000FE
:1019E8000E33CDAB34126DE6ECDE05000B000000C3
:1019F80000000000000000000000000000000000DF
:101A080000000000000000000000000000000000CE
:101A180000000000000000000000000000000000BE
:101A280000000000000000000000000000000000AE
:04000003100000D019
:00000001FF
