:020000021000EC
:100074004111930610043546B145014506C623AC2B
:100084000182512E9305E00701457922B7070080CC
:1000940023A2070013000000B24001454101828001
:1000A400972100009381414E138581801386019A24
:1000B4003306A64093050000EF00C05C170500005E
:1000C4001305C54BEF008046EF00405203250100A5
:1000D4009305410013060000EFF09FF96F004046BE
:1000E4006780000017250000130505CA9727000044
:1000F400938787C9638AA7001703FFFF130343F09D
:1001040063040300670003006780000017250000F4
:10011400130585C797250000938505C7B385A540BA
:1001240093D5254093072000B3C5F502638A0500E3
:100134001703FFFF1303C3EC63040300670003000A
:10014400678000009727000083C787C46392070471
:10015400130101FF23261100EFF0DFF89707FFFFDB
:10016400938707EA638A0700170500001305457E95
:100174009700FFFFE780C0E88320C10093071000C9
:10018400172700002306F7C0130101016780000050
:10019400678000009707FFFF938787E6638607025F
:1001A400130101FF972500009385C5BE17050000C4
:1001B4001305057A232611009700FFFFE78040E42A
:1001C4008320C100130101016FF05FF493573500E0
:1001D4008A05A207AE971D89B70503800547AE9728
:1001E4003315A70088C3828063CC0500B7070100DC
:1001F40093874720C607C983371703801CC38280AF
:10020400C967938787E00A053E951841B7070080C0
:1002140098C71300000082800A059387C182AA97B9
:1002240093F5F50F8CC393870183AA9723A0070046
:1002340093870185AA9798439387C1873E95144174
:100244008547B397D7002328F7FE828063CF050044
:10025400B70601009386E626C606C982B70700C022
:10026400BE963A05AA9636858280138701830A05CD
:100274002A971C439385018313F8170013F6F70F8D
:100284006304081413085002631E06051306502263
:100294006392C70423200700138701852A9710431C
:1002A4001387C1872A9703280700054733170701D7
:1002B4002328E6FE370700802322070013000000EE
:1002C4002E9585071CC1B707008023A207001300E1
:1002D400000051BF138701872A9710433707008016
:1002E40010C3F9BF138701852A9703280700938851
:1002F400C187AA98138681842A96038E0800C5486C
:100304000327080003230600639217059388418698
:10031400AA9883A808006313130B85483393C80174
:100324003357C701232268FC058B41EF23201601B4
:100334001387C1842A9710431387C1852A970328FA
:10034400070005473317070158CA9DBFCD48639876
:10035400170105463317C6012320E8FCD1BF9308D3
:100364002021E3E7F8FC9308201163FFF802938847
:10037400C1821383D7EE1D46AA9813531300330387
:10038400664003A6080033566600058A11E6138604
:10039400D7ED930848FC19E2930808FC0546331787
:1003A400C60123A0E80069B70948E373F8F8335796
:1003B400C7010603058B1A9718C29DBF9307102126
:1003C40085BF93071011ADB7130740026311E6020E
:1003D400138701852A9710431387C1872A97032817
:1003E4000700054733170701232AE6FED1BD91E72D
:1003F400138781842A97232007001387C1842A97AF
:1004040010431387C1852A9703280700054733172C
:10041400070118CA75B5011122CC938741861314BC
:10042400250006CE26CA4AC84EC652C456C2A29752
:1004340094C3B717008003AA8700AE843289D2859B
:10044400AA8A692093870187A29788C393D6340028
:10045400B7090380138709029387C184A206BA9659
:10046400A29794C39387C185A29713F77400268536
:10047400814598C3A13BD2855685C93BC9679387FB
:1004840087E0131729003E978A0408C3BE9488C0E6
:10049400D2850145913B1357390093890904938709
:1004A40001852207A2974E9798C39387C1873E94EC
:1004B400937779001CC06244F240D244B249224A84
:1004C400924A4A8542498145056109B363CE0500D4
:1004D400B70701009387C74EC607370700C0C98313
:1004E400BA973A053E958280411122C483A781833D
:1004F40006C695E3938781840A053E951841B7079C
:10050400038093051008D8CB0145393383A7818331
:10051400850723ACF182B707008023A207001300EC
:100524000000B2402244410182800000930505008E
:100534009306000013060000130500006F0040221C
:10054400130101FF930500002324810023261100D9
:1005540013040500EF000029972700009387C78242
:1005640003A507008327C50363840700E78007000A
:1005740013050400EF004038130101FE9717000033
:100584009387C73D232C8100171400001304C43C37
:1005940033848740232A9100232821012326310113
:1005A400232E1100135424409304000013890700E0
:1005B4009309C0FF63109402032481018320C101C5
:1005C40083244101032901018329C100130101028C
:1005D4006FF01FB1B387340393841400B307F90099
:1005E40083A7C7FFE78007006FF0DFFC130101FF5B
:1005F400232481002322910017140000130484355E
:100604009714000093840435B3848440232021018B
:100614002326110093D42440130900006310990485
:100624001714000013040433971400009384C43295
:10063400B3848440EFF0DFAA93D42440130900006C
:10064400631899028320C10003248100832441009C
:1006540003290100130101016780000083270400BE
:100664001309190013044400E78007006FF01FFB0F
:10067400832704001309190013044400E7800700CA
:100684006FF01FFC1303F00013070500637EC30221
:100694009377F7006390070A63920508937606FF41
:1006A4001376F600B386E6002320B7002322B700B2
:1006B4002324B7002326B70013070701E366D7FEF8
:1006C4006314060067800000B306C34093962600B7
:1006D40097020000B38656006780C6002307B70060
:1006E400A306B7002306B700A305B7002305B70088
:1006F400A304B7002304B700A303B7002303B70080
:10070400A302B7002302B700A301B7002301B70077
:10071400A300B7002300B7006780000093F5F50F2E
:1007240093968500B3E5D50093960501B3E5D5000E
:100734006FF0DFF69396270097020000B386560009
:1007440093820000E78006FA93800200938707FFF4
:100754003307F7403306F600E378C3F66FF0DFF3B0
:10076400971700009387476203A707001303050048
:1007740083278714639607009307C7142324F71469
:1007840003A747001308F0011305F0FF634AE804C8
:1007940093182700630C0302338517012324C5082B
:1007A40003A88718130610003316E6003368C80040
:1007B40023A407192324D510930620006318D3001B
:1007C40083A6C71833E6C60023A6C7181307170065
:1007D40023A2E700B387170123A4B7001305000081
:1007E40067800000130101FD971700009387C75924
:1007F400232E310183A90700232C4101232A51010F
:100804002328610123261102232481022322910239
:100814002320210323267101930A0500138A05006E
:10082400130B100083A48914638C040003A44400F4
:100834001309F4FF13142400338484006358090259
:100844008320C1020324810283244102032901027B
:100854008329C101032A8101832A4101032B010158
:10086400832BC1001301010367800000630C0A009D
:1008740083274410638847011309F9FF1304C4FF55
:100884006FF0DFFB03A74400832744001307F7FF3F
:10089400631C270323A22401E38007FE83A6841894
:1008A40033172B0183AB4400B376D700639206025F
:1008B400E780070003A7440083A78914E31477F7AC
:1008C400E38CF4FA6FF01FF6232204006FF0DFFCD0
:1008D40083A6C418832544083377D7006318070018
:1008E40013850A00E78007006FF0DFFC138505001D
:1008F400E78007006FF01FFC93050000130600005B
:100904009306000013070000930700009308D00526
:100914007300000063520502130101FF23248100C8
:10092400130405002326110033048040EF00000166
:10093400232085006F0000006F000000971700005F
:0C0944009387C74403A5070067800000EC
:0409500000000000A3
:0419540098010100F5
:041958004801010041
:10196000000000004C1C0100B41C01001C1D010003
:101970000000000000000000000000000000000067
:101980000000000000000000000000000000000057
:101990000000000000000000000000000000000047
:1019A0000000000000000000000000000000000037
:1019B0000000000000000000000000000000000027
:1019C0000000000000000000000000000000000017
:1019D0000000000000000000000000000000000007
:1019E00000000000000000000000000000000000F7
:1019F00000000000000000000000000000000000E7
:101A000000000000000000000100000000000000D5
:101A10000E33CDAB34126DE6ECDE05000B0000009A
:101A200000000000000000000000000000000000B6
:101A300000000000000000000000000000000000A6
:101A40000000000000000000000000000000000096
:101A50000000000000000000000000000000000086
:04000003100000A445
:00000001FF
