:020000021000EC
:1000740041111307A061814605469305000201451D
:1000840006C623AA0192A52C1307A0618146054642
:10009400930510020545A5241307A0618146054672
:1000A400930520020945A12C1307A061814605464A
:1000B400930530020D45A1241307A061814605462E
:1000C400930540021145252C1307A061814605467E
:1000D40093055002154525241307A0618146054662
:1000E400930560021945212C1307A061814605463A
:1000F400930570021D4521249306A06105469305CE
:1001040000020145F9299306A061054693051002F2
:100114000545C1299306A0610546930520020945BA
:10012400C9219306A0610546930530020D45552962
:100134009306A06105469305400211455D2193068F
:10014400A061054693055002154561299306A061F7
:100154000546930560021945692181450145E92C4D
:10016400B707008023A2070013000000B240014536
:100174004101828097210000938181AB13858180A6
:10018400138601AF3306A64093050000EF00807488
:100194001705000013058563EF00405EEF00006A59
:1001A400032501009305410013060000EFF05FEC06
:1001B4006F00005E678000001715000013054527D7
:1001C400971700009387C726638AA7001703FFFFCA
:1001D400130303E363040300670003006780000064
:1001E400171500001305C5249715000093854524B1
:1001F400B385A54093D5254093072000B3C5F502E8
:10020400638A05001703FFFF130383DF63040300FE
:1002140067000300678000009717000083C7C721A9
:1002240063920704130101FF23261100EFF0DFF8A6
:100234009707FFFF9387C7DC638A07001715000041
:10024400130505969700FFFFE78080DB8320C1003C
:1002540093071000171700002300F71E1301010174
:1002640067800000678000009707FFFF938747D9E6
:1002740063860702130101FF971500009385051C8F
:10028400171500001305C591232611009700FFFFE1
:10029400E78000D78320C100130101016FF05FF4F0
:1002A400B71700809C47371700803E951C47E3EF43
:1002B400A7FE8280935735008A05A207AE971D8951
:1002C400B70503800547AE973315A70088C382801E
:1002D40063CC0500B70701009387C72EC607C983FF
:1002E400371703801CC382809387019D0A053E95BE
:1002F4001841B707008098C713000000828041119D
:1003040026C2AA84060622C4858A139424009387ED
:10031400818C198A06C6558EA29790C393878195BE
:10032400A29798C393D73540370703804107A207A4
:10033400BA971387819322971CC31387818E938660
:100344004700229714C313F775008546B396E60059
:1003540013878197229714C32E85D4C38545993F6B
:10036400B71700808C472685352E9387818A3E9463
:1003740008C0B240224492444101828063C2050213
:10038400B70701009387473AC607C983370700C0F8
:10039400BA973A053E95B717008088C3CCC38280CC
:1003A4009386C18793151500AE9683D6060005661D
:1003B4007916758E1387C1879317250035C613F6F2
:1003C400160025C21386818E3E96032806001386E6
:1003D40081973E9610422E9785822320C8002310D1
:1003E400D700938681951387C1853E97B6979C4322
:1003F4001443370600C03A05BE96B7070100938739
:10040400473AC607C983B2973E95B717008088C399
:10041400D4C314C3B707008023A20700130000004D
:100424008280138681934DB71387818ABA97984344
:10043400B707008098C3F9BF131625001387818C72
:10044400329718439377670093781700A9CF8146B2
:100454008147214333D8D500137818008506C29705
:10046400E39A66FE118B11C38507A20793F7071061
:10047400BE9593870560638608008567938707E0C8
:10048400AE97131715009386C187369786072310F6
:10049400F700B71700808C479387C185938585251E
:1004A400B2978CC3E1BD93860530638408009386BC
:1004B4000570131715009387C1873E97860623108E
:1004C400D700C1BF63CF0500370701001307674E8C
:1004D40046074983B70700C03E973A052A973A85ED
:1004E4008280131625009387C188B2979C43138892
:1004F4004192131E150072988C4383570800938809
:10050400419293F617008DCE9386419BB296884212
:10051400A1468583898EB396D50093F60610B697C7
:100524002310F800938741823E961442B707008057
:1005340094C3B707008023A207001300000045B747
:1005440013838190329393860184B296032F030020
:10055400944213838199A9E78D45B386B602B717F0
:1005640000809C479387A7FB8582BE969307001063
:1005740063040F00930700202310F800B70701005D
:100584009387674EC607C983B70500C0AE973A057F
:100594003E95B717008088C3D4C31A9614C251BFBE
:1005A4003308C300032808008583C2961388419B3F
:1005B4003298832E0800631E0F0021483308D84167
:1005C400B395050193F50510AE97F2982390F800C2
:1005D40075B725483308D841B395050193F505202F
:1005E400E5B7011122CC938781901314250006CE20
:1005F40026CA4AC84EC60D8AA29790C3938701841F
:10060400A29794C31387419293171500BA97239026
:100614000700B717008083A98700AE842A89CE8596
:1006240055351387019D93972400BA9788C3CE85C7
:1006340001457939CE854A85D12093874182A29795
:1006440088C33707038093D7344013070702A207F0
:10065400BA971387C18822971CC39D88054733170F
:10066400970098CB9387419B3E9404C0F240624428
:10067400D2444249B2490561828093171500138719
:100684004192BA97239007000A059387C188AA97D5
:1006940098439387419B3E9514418547B397D70070
:1006A4001CCB8280AA8763CE0500370501001305A1
:1006B400656C4605370700C049813A95BA073E95EF
:1006C400828015E583A541931307F00E6361B70299
:1006D4004111C10506C623AAB192B93BB7070080F0
:1006E40023A2070013000000B24041018280B70733
:1006F400008023A2070013000000828063CE05005F
:10070400B70701009387C771C607370700C0C983BD
:10071400BA973A053E958280411106C622C426C284
:10072400370703809307F00F2328F730931415003D
:1007340093874192BE942A8403D504009347F5FF1E
:10074400232AF73093574540BD8B3D89AA97294505
:100754003385A702B13683C504001305140085054B
:10076400E1392285193FB707008023A2070013004F
:100774000000B24022449244410182809305050066
:100784009306000013060000130500006F004022CA
:10079400130101FF93050000232481002326110087
:1007A40013040500EF00002997170000938747C83A
:1007B40003A507008327C50363840700E7800700B8
:1007C40013050400EF004038130101FE97170000E1
:1007D40093878783232C81001714000013048482D9
:1007E40033848740232A91002328210123263101C1
:1007F400232E11001354244093040000138907008E
:100804009309C0FF63109402032481018320C10172
:1008140083244101032901018329C1001301010239
:100824006FF05F99B387340393841400B307F9001E
:1008340083A7C7FFE78007006FF0DFFC130101FF08
:100844002324810023229100170400001304447B15
:10085400970400009384C47AB38484402320210144
:100864002326110093D42440130900006310990433
:10087400170400001304C478970400009384847858
:10088400B3848440EFF01F9393D4244013090000F1
:10089400631899028320C10003248100832441004A
:1008A400032901001301010167800000832704006C
:1008B4001309190013044400E78007006FF01FFBBD
:1008C400832704001309190013044400E780070078
:1008D4006FF01FFC1303F00013070500637EC302CF
:1008E4009377F7006390070A63920508937606FFEF
:1008F4001376F600B386E6002320B7002322B70060
:100904002324B7002326B70013070701E366D7FEA5
:100914006314060067800000B306C3409396260064
:1009240097020000B38656006780C6002307B7000D
:10093400A306B7002306B700A305B7002305B70035
:10094400A304B7002304B700A303B7002303B7002D
:10095400A302B7002302B700A301B7002301B70025
:10096400A300B7002300B7006780000093F5F50FDC
:1009740093968500B3E5D50093960501B3E5D500BC
:100984006FF0DFF69396270097020000B3865600B7
:1009940093820000E78006FA93800200938707FFA2
:1009A4003307F7403306F600E378C3F66FF0DFF35E
:1009B400971700009387C7A703A707001303050031
:1009C40083278714639607009307C7142324F71417
:1009D40003A747001308F0011305F0FF634AE80476
:1009E40093182700630C0302338517012324C508D9
:1009F40003A88718130610003316E6003368C800EE
:100A040023A407192324D510930620006318D300C8
:100A140083A6C71833E6C60023A6C7181307170012
:100A240023A2E700B387170123A4B700130500002E
:100A340067800000130101FD971700009387479F0B
:100A4400232E310183A90700232C4101232A5101BC
:100A540023286101232611022324810223229102E7
:100A64002320210323267101930A0500138A05001C
:100A7400130B100083A48914638C040003A44400A2
:100A84001309F4FF13142400338484006358090207
:100A94008320C10203248102832441020329010229
:100AA4008329C101032A8101832A4101032B010106
:100AB400832BC1001301010367800000630C0A004B
:100AC40083274410638847011309F9FF1304C4FF03
:100AD4006FF0DFFB03A74400832744001307F7FFED
:100AE400631C270323A22401E38007FE83A6841842
:100AF40033172B0183AB4400B376D700639206020D
:100B0400E780070003A7440083A78914E31477F759
:100B1400E38CF4FA6FF01FF6232204006FF0DFFC7D
:100B240083A6C418832544083377D70063180700C5
:100B340013850A00E78007006FF0DFFC13850500CA
:100B4400E78007006FF01FFC930500001306000008
:100B54009306000013070000930700009308D005D4
:100B64007300000063520502130101FF2324810076
:100B7400130405002326110033048040EF00000114
:100B8400232085006F0000006F000000971700000D
:0C0B94009387478A03A5070067800000D4
:040BA0000000000051
:041000006C0201007D
:041004001C020100C9
:1010080000000000F41201005C130100C413010089
:1010180000000000000000000000000000000000C8
:1010280000000000000000000000000000000000B8
:1010380000000000000000000000000000000000A8
:101048000000000000000000000000000000000098
:101058000000000000000000000000000000000088
:101068000000000000000000000000000000000078
:101078000000000000000000000000000000000068
:101088000000000000000000000000000000000058
:101098000000000000000000000000000000000048
:1010A8000000000000000000010000000000000037
:1010B8000E33CDAB34126DE6ECDE05000B000000FC
:1010C8000000000000000000000000000000000018
:1010D8000000000000000000000000000000000008
:1010E80000000000000000000000000000000000F8
:1010F80000000000000000000000000000000000E8
:040000031000017870
:00000001FF
