:020000021000EC
:100074001971CAD8CED6D2D4D6D2DAD0C569456AD7
:10008400C56A456BDECE86DEA2DCA6DAE2CC138935
:10009400C180938989DA130A0AE0938A0AE1130B6F
:1000A4000B639307800E3ED09307D0023ED893078C
:1000B400F00C3EDA9307800C3ED2930760043EDCDA
:1000C400930790023EDE930700023ED49147BEC0E0
:1000D4009307400BBEC29307000F3ED693078007D9
:1000E400BEC49307800D2320090023A4018002CC01
:1000F40002CEBEC6372701105CC70145014437282C
:1001040001100543C148931715001818B305F700EB
:100114002A86CE97814418103297B306CA009442B7
:100124001843130CC800A105158F3337E000B3063C
:10013400870003A785FFA10711062326E80003A76C
:1001440087FF2326E80003A487FF03A785FF018F09
:100154003334E0003307D40083A6C5FF2326D80038
:1001640083A6C7FF2326D80003A4C5FF83A6C7FF21
:10017400158C333480003A946393640C2105E314A2
:1001840015F9EF00607BB707080085072320FC0002
:100194001010081826C202C09308800C1308800CA3
:1001A4008147054781462C08452D01453726011016
:1001B400054E4143931715001818B305F7002A8814
:1001C400D697814818104297B3060B0194421843FE
:1001D400A105A107158F3337E000B306870003A7F5
:1001E40085FF110858C203A787FF18C603A487FF19
:1001F40003A785FF018F3334E0003307D40083A6BF
:10020400C5FF54C283A6C7FF14C603A4C5FF83A6B3
:10021400C7FF158C333480003A946394C8032105D6
:10022400E31A65F80DC0B70708005CC613000000A8
:1002340013000000130000001300000001A0854417
:10024400D9BDA68841B7B70740005CC613000000BB
:100254001300000013000000130000005CC613002C
:10026400000013000000130000001300000015BD7F
:10027400973100009381C19B138581801386C1034C
:100284003306A64093050000EF0050051705000053
:1002940013054574EF00006FEF00C07A03250100D9
:1002A4009305410013060000EFF09FDC6F00C06E61
:1002B40067800000172500001305851797270000A5
:1002C40093870717638AA7001703FFFF130343D31A
:1002D4006304030067000300678000001725000023
:1002E400130505159725000093858514B385A5404E
:1002F40093D5254093072000B3C5F502638A050012
:100304001703FFFF1303C3CF630403006700030055
:100314006780000083C7018263900704130101FF13
:1003240023261100EFF01FF99707FFFF938747CDAE
:10033400638A070017150000130585309700FFFF37
:10034400E78000CC8320C100930710002380F18252
:100354001301010167800000678000009707FFFF19
:10036400938707CA63840702130101FF93854182BF
:10037400171500001305C52C232611009700FFFF55
:10038400E78000C88320C100130101016FF01FF54D
:10039400B386C5003387B6406359E00003C7050040
:1003A40005058505A30FE5FEF5B732858280411169
:1003B40022C4B707FEAF496426C206C63727011018
:1003C4009387B70B9304C4461CC744C313000000AF
:1003D4001300000013000000130000000566C5654B
:1003E4001305C44613060680938505E3553723AEEB
:1003F400918083A781801304C44699C79387818120
:1004040098431307078098C39307F07F63C3A70437
:1004140063490502937735009DE722959306F07FA3
:100424000547930770FB3306954063C4C602230057
:100434000500A30005002301E500A301F500110553
:10044400DDB70145D9BF0505B307A400A38F07FE97
:10045400D1B7B240224492444101828083A70181F2
:100464003305A04033D5A700828001114AC8138701
:1004740001811C4322CC4EC606CE26CAB397A700E0
:100484001CC39387418180433707FEAF1307A70A34
:10049400098C80C3B727011098C7C0C3130000009C
:1004A40013000000130000001300000061476342C2
:1004B400870603A6C18193868103138901819389E9
:1004C40041819384C181637CD6068546D4C31300DD
:1004D4000000130000001300000013000000E147B7
:1004E400018F228694402106938516008CC083C612
:1004F400060083250900B396E600CD8E2320D9009B
:100504006117E3D1C7FE818FE19B21043E9423A0B0
:100514008900B707FEAF372701109387070A1CC766
:10052400130000001300000013000000130000007B
:10053400F2406244D2444249B249056182809387C1
:10054400C1036363F600A535614637270110496589
:10055400018EA28511071305C546E147944014C3D3
:10056400130000001300000013000000130000003B
:1005740008C3130000001300000013000000130060
:100584000000944083C6060014C313000000130047
:1005940000001300000013000000944013881600AC
:1005A40023A0040183C6060003280900B396C600ED
:1005B400B3E606012320D90014C31300000013007E
:1005C40000001300000013000000A1056116E3D72A
:1005D400B7F815BF411106C622C426C2AA84BD3D80
:1005E4002A84268559352285B24022449244410109
:1005F40082800545C5B7411106C622C4DD3F19C531
:100604008147B24022443E854101828083A7018113
:1006140037270110B706FEAFDD8314C75CC3130090
:1006240000001300000013000000130000009306F4
:10063400F00363F2F602998745648607130484DCA9
:100644003E940305140015356D378307040055D90E
:10065400B307F0407DB7DD4663F8F6008D87456447
:100664008607130484DDE9BFD117E3CB07F85CC325
:10067400130000001300000013000000130000002A
:1006840045648607130484DE65BF4111054506C62B
:100694009137814711C50545353FFD5711E1854720
:1006A400B2403E85410182803708FEAFB727011072
:1006B400050823A40701D0C31300000013000000A1
:1006C4001300000013000000D8C31300000013003F
:1006D40000001300000013000000CCC3130000004E
:1006E400130000001300000013000000D4C3130023
:1006F4000000130000001300000013000000032892
:10070400050023A2070113000000130000001300DA
:1007140000001300000013080002B3E5050341487C
:100724003318B80023A207011300000013000000CF
:1007340013000000130000001C4111C38587B72873
:10074400011023A2F800130000001300000013009E
:10075400000013000000635EC0027D163316B6006D
:10076400B2968506B69723A2F80013000000130082
:100774000000130000001300000063C50701060811
:10078400B387074111C386071CC1372701105CC317
:1007940082806DDA1346F6FF3316B600B2968506EC
:1007A400958FB3060041E3DFD7FC0608C297D9BF93
:1007B400797122D426D24AD04ECE52CC56CA5AC8C7
:1007C4003289B68406D62A84AE893A8ABE8A428B96
:1007D4001D352A8681466308090011C52AC64A8543
:1007E400D53B3246AA865A87CA852285753D63055C
:1007F4000A00613D23A0A900B707FEAF3727011007
:1008040089071CC71C405CC3FD332A86814699C4F2
:1008140011C52AC626857D3B3246AA8663850A0011
:100824005C4085875CC05A87A68513054400AD3DAE
:1008340063850A005C4086075CC063050A00B13525
:1008440023A2A900B250225492540259F249624A96
:10085400D24A424B45618280797122D426D24AD051
:100864004ECE52CC56CA139A36005AC85EC662C4DB
:1008740066C2368406D68546AA84AE8A3289428BFD
:10088400468CC259D25BB30C45016311D70691EB78
:100894006399090005453D3B0A043306890008C2F3
:1008A40008C6DE874E87E2865A86D6856685014865
:1008B4000137B7E7FEAF372701109387D7EA1CC784
:1008C4009C40D294B2505CC383A70C0022540259BA
:1008D40023A8FC00DC40F249624ADCC8D24A9254A4
:1008E400424BB24B224C924C4561828005450A042E
:1008F400D5314A94DE874E87E2865A86D68508C06B
:100904000148668575350545F13108C41385040130
:100914002254B25092540259924CDE874E87B24B05
:10092400F249E2865A86224C424BD6855295D24AE7
:10093400624A01484561ADBD23AA018041119387F4
:10094400C10322C423AEF18006C623ACF180138414
:100954000181B707100401451CC0013EB707FEAF73
:1009640037270110A9071CC71C405CC313000000F3
:10097400130000001300000013000000B2402244E2
:1009840041018280930505009306000013060000D0
:10099400130500006F004022130101FF93050000BE
:1009A400232481002326110013040500EF000029ED
:1009B400972700009387C7A703A507008327C503CC
:1009C40063840700E780070013050400EF00403844
:1009D400130101FE9717000093870763232C8100FE
:1009E400171400001304046233848740232A9100FF
:1009F4002328210123263101232E110013542440DE
:100A040093040000138907009309C0FF6310940244
:100A1400032481018320C1018324410103290101AD
:100A24008329C100130101026FF09F88B387340347
:100A340093841400B307F90083A7C7FFE780070076
:100A44006FF0DFFC130101FF2324810023229100B6
:100A5400171400001304C45A971400009384445AD2
:100A6400B3848440232021012326110093D42440FD
:100A74001309000063109904171400001304445868
:100A84009714000093840458B3848440EFF05F8289
:100A940093D4244013090000631899028320C100F1
:100AA400032481008324410003290100130101016F
:100AB400678000008327040013091900130444000D
:100AC400E78007006FF01FFB832704001309190058
:100AD40013044400E78007006FF01FFC1303F000C9
:100AE40013070500637EC3029377F7006390070A38
:100AF40063920508937606FF1376F600B386E60044
:100B04002320B7002322B7002324B7002326B700ED
:100B140013070701E366D7FE63140600678000002D
:100B2400B306C3409396260097020000B38656008E
:100B34006780C6002307B700A306B7002306B700E3
:100B4400A305B7002305B700A304B7002304B70027
:100B5400A303B7002303B700A302B7002302B7001F
:100B6400A301B7002301B700A300B7002300B70017
:100B74006780000093F5F50F93968500B3E5D500E3
:100B840093960501B3E5D5006FF0DFF69396270041
:100B940097020000B386560093820000E78006FAAD
:100BA40093800200938707FF3307F7403306F6006C
:100BB400E378C3F66FF0DFF3972700009387478746
:100BC40003A7070013030500832787146396070010
:100BD4009307C7142324F71403A747001308F0014D
:100BE4001305F0FF634AE80493182700630C03021B
:100BF400338517012324C50803A88718130610009A
:100C04003316E6003368C80023A407192324D5103B
:100C1400930620006318D30083A6C71833E6C600E2
:100C240023A6C7181307170023A2E700B3871701E9
:100C340023A4B7001305000067800000130101FD21
:100C4400971700009387C77E232E310183A90700DD
:100C5400232C4101232A5101232861012326110257
:100C640023248102232291022320210323267101BC
:100C7400930A0500138A0500130B100083A489143A
:100C8400638C040003A444001309F4FF1314240028
:100C940033848400635809028320C102032481023F
:100CA40083244102032901028329C101032A81010A
:100CB400832A4101032B0101832BC100130101038A
:100CC40067800000630C0A0083274410638847018F
:100CD4001309F9FF1304C4FF6FF0DFFB03A74400FB
:100CE400832744001307F7FF631C270323A224016F
:100CF400E38007FE83A6841833172B0183AB4400DB
:100D0400B376D70063920602E780070003A7440086
:100D140083A78914E31477F7E38CF4FA6FF01FF6D2
:100D2400232204006FF0DFFC83A6C4188325440843
:100D34003377D7006318070013850A00E78007009C
:100D44006FF0DFFC13850500E78007006FF01FFCE0
:100D5400930500001306000093060000130700002B
:100D6400930700009308D005730000006352050246
:100D7400130101FF2324810013040500232611001D
:100D840033048040EF000001232085006F00000041
:100D94006F000000971700009387C76903A5070039
:040DA4006780000064
:100DA8002D000000CF0000004600000029000000D0
:100DB80004000000B400000078000000D800000023
:100DC800FF00030302020202010101010101010106
:100DD800FF00FF00FF0007060606050604050405D8
:100DE80010090F090E090D090C090B090A080A0850
:100DF8000908090808080808E8000000C8000000F9
:100E080020000000F00000001E060000CE000000D8
:100E180046000000290000001E060000CE00000069
:100E280078000000D8000000006878304820A0C092
:100E3800C04038F8F85888E0C8D0B0486028B8A052
:100E4800202078A8402048B8D8F000D8C04070309A
:100E5800A09828B02020F8C86818D8F080B048E8D2
:100E6800F0B8307830C040A8A080A0A0E8D068785A
:100E7800E87808B878C840A0C8E040A82878506842
:100E88001000087890885090481880D8D8185010CA
:100E98004020C870809058187078206848B01810A2
:100EA800B83818C8989830308850F008D8C8F0205A
:100EB800A870303828C0E82030E8E8200058D0185A
:100EC800F0487860F888E0D008B8C090583090882A
:100ED80070C060F0C8A0B8A01830D09880B8B8909A
:100EE80090A8F090A0A8303018C89078D038604802
:100EF800305850C8F8D0F828887020080850C02802
:100F080020E038C0C83838E8C8507808B8D8E85061
:100F1800A88020D88868F8A8F808C0A8C038F0C009
:100F2800D0887830E070A850C06050787810783059
:100F3800A8A8A0E080184818F8F098A0D038C038C1
:100F48005880C08880D0702840C020B05038A8D0C1
:100F580018A8A8F8F088602038B808881000B028C9
:100F6800002068A03858E83800F0B8E85820B000E9
:100F7800D8F8B828105008D040E048284848905081
:100F880090788840B8A088103068E8686848D048E9
:100F9800C0B82838E848A05098E8F820E02800A809
:100FA800186070A0980820A068D02018F808F89059
:100FB8007810C05898B0C8A098A060A8F010F8B0F1
:100FC80018D8003850F860088020C06830D0F0B8D1
:100FD800805038C00070B030603818381820186059
:100FE800500040703018583898E0A0C0B848F880D1
:100FF80008086868C8308888D0905028886008D069
:10100800A068A0504060B09008385858D07830F0A8
:10101800F060F8C06880F81868484078F8C030C0B8
:1010280020509010506070B83850F8E80028F83810
:10103800C020C060F83088E05000C0806878D08058
:1010480000B0D808C0601028B860204850C0686850
:10105800880010A018683008189878804820B07068
:101068006878102090A038F000E8B81810D0C8F0C0
:10107800C8C8687018D080A8F840987840E080D038
:1010880078D810983090F05090E030A0C0F80080E8
:101098007880A0E8A8D0707068B808C038B0286018
:1010A800404868D898D85098B8D820382040F09848
:1010B800F0A88808E8A88058488008C030787020D0
:1010C80090D0C0D810B0A8A0A858883808400050C0
:1010D800D868405058D04050C81878A0504838D8E0
:1010E800183848284800388838C84888584888F048
:1010F80000B0B098C0F8E0F0480870E8C878100070
:10110800283040482088689810F0B850009820B0DF
:10111800807800A02840702850309060A800984837
:10112800B8885898B830589860D8F0B8C8884068D7
:1011380070E800D0B08070F890F878700078F058B7
:10114800585808F8500840D8F038389070D090486F
:1011580010A088D8B0703808A8684828B0582878EF
:101168001828386828A0E8A0189090E8789070604F
:1011780088B0088070B86078407000B85048B8509F
:10118800904878C8A8201800904818F818984880FF
:101198000008E02048483070E810F0184020E8784F
:1011A800A8C89870089000787000709048A018D867
:1011B8007080E09868882800109030F8883040588F
:1011C80098D0F81070E0B8A828A840F89068C8909F
:1011D8009810A8C0F0604888D8880020C070F0A097
:1011E800F8B81030E858A01068B0908818F0B8A087
:1011F80008102038B090A8A838585868F8B8602067
:101208008058E0F02078D88808485068789820609E
:10121800E850E81850C8D0D8B8103828D8D0807806
:10122800101050C89068A0481888B020C07888501E
:101238001058D0A010E8281890D0201058C030B00E
:101248009818A0205018F050A098A080505828B89E
:10125800D09030C8C830709068E090E0C808E0F0DE
:101268002098E8100850B828B8F84008E8105858EE
:1012780008788030F058406868F860F0C098D03836
:1012880098F08808D81870A8588850E088982818C6
:10129800F8D8988860E040503838480818409018C6
:1012A800D0D8807860A8789870E88850486098D03E
:1012B80048D840787830E848B8B030E8C8B87848B6
:1012C8007080F8A0A8D89850B0703098704028C89E
:1012D800E850A038D8C0A8482840D020E0F01868C6
:1012E800E8F0A818F820509890A0707860F040A016
:1012F800F8F89830705880E8F0F0E8A8782098B0AE
:1013080068105098F0E080103020D80868F8B8D0FD
:10131800D87850D080387028B810E0A898F838905D
:10132800A8E008A8508898306000B858C018108005
:1013380000B098286048C000208018F030F8B078D5
:1013480010A8E04808C830B070E0A0089840101015
:10135800F0E040908050B828E8C870F81870B08065
:101368008038289818B878684840C830E00038E8CD
:1013780020F0B8686820C0C8C8409848D8D850003D
:10138800500000A0782888F0207898D83870101875
:10139800087868C090B008106068A850C0E87070FD
:1013A8003858B0F020B0F850B018E0C008B0A81015
:1013B800E8F810106880E80020F07020B8B838E825
:1013C80050901048F0D040B0F010881050C0184825
:1013D800D83850D82090481840F800E0482088E8CD
:1013E800F04820588068100820C0E00898F8E0000D
:1013F800B0301068D8B018F0C850F8D080C8480885
:10140800988050785098E8C8A85810B0E82848D074
:10141800E870F07050B0B010487820B8E05018B0BC
:1014280000D01038701078A018D88088C098F87844
:10143800A038C0E0008870700808B8A858A078A044
:10144800F0A82028A858081018686830F88848902C
:1014580080A0D858F078E848C0C8F8C030F068D004
:101468002868108050E0E03838782818B010B8188C
:10147800B0E0A810B86888C8A8D078C8E028D0100C
:1014880070A0C0E04028E87818E8A850589068484C
:10149800C070007068E0E8A070D0B0D838E0E0A074
:1014A8006838B0D8C018D0082838F80878B8802824
:1014B800A838B8C0886048D80840483810B090109C
:1014C80080B088D07810B8E0A0D89058D0C8906084
:1014D80098C8E0D0F0780868B870A8C8704800C00C
:1014E80000287888702898389020E0F020C038C804
:1014F800108868C0C000000008E868F058C008A854
:10150800D8D0B8E0F0489848A8B8B0D83090502063
:10151800B8D070A05858089090789830C8A870082B
:10152800A0D8F080688090F840A888F0A03888D8C3
:101538005038C02040805020206058C89848A010DB
:1015480080C8A09070107098388838D80818C09053
:10155800B0C830482848F07878A0509890D8E098DB
:101568002890A058B8B8C08000C84870D0F8980033
:1015780098082810A89840B05818E8882098E8D00B
:10158800C0F08800E8C808D868B840C00860B878D3
:10159800D05010408888480870B8F878880838E82B
:1015A800D0601040A8703020B8E0485880B848A8EB
:1015B800E0D8A0E840A83098409810C8A83890C053
:1015C8004078A80880D8100868208060A0588860F3
:1015D800381080385810D0C81860F020E8C068A8C3
:1015E8002800C028C860B80848D868E870F8080813
:1015F800F8C0982000A8E850F8400818502060F07B
:10160800E830501090C81030582870E858A838A012
:10161800E81080F83050C8A89848D8E048D098C05A
:1016280000E03088A860109800000000C8000000A2
:0816380000000000F0000000BA
:101640001000000000000000017A5200017C01013E
:101650001B0D0200100000001800000038EDFFFF15
:101660001E00000000000000240000002C0000000C
:1016700042EDFFFFAE00000000420E104688024619
:10168000890381010298C142C842C9420E0000008C
:101690001000000054000000C8EDFFFF0E00000025
:1016A000000000003000000068000000C2EDFFFFF5
:1016B0006A01000000420E204292044E8802930507
:1016C0008101890302B60AC142C842C942D242D34B
:1016D000420E00420B000000200000009C000000B1
:1016E000F8EEFFFF1E00000000420E104681018848
:1016F0000289034EC142C842C9420E0010000000D8
:10170000C0000000F2EEFFFF040000000000000037
:1017100020000000D4000000E2EEFFFF9400000073
:1017200000420E104481018802480AC142C8440E9A
:1017300000420B0018000000F800000052EFFFFF0D
:101740001E00000000420E1044810152C1440E00F0
:10175000100000001401000054EFFFFF080100001A
:1017600000000000380000002801000048F0FFFFE2
:10177000A800000000420E304E88028903920493B4
:10178000059406950796084681010280C142C84229
:10179000C942D242D342D442D542D6420E000000C2
:1017A0006000000064010000B4F0FFFFE0000000F2
:1017B00000420E304C8802890392049305940695EA
:1017C000075096089709980A990B810102500AC19F
:1017D00048C842D248D342D444D542C942D642D75F
:1017E00042D842D9420E00420B66C842C142C942A9
:1017F000D242D946D742D346D842D646D542D4441F
:101800000E00000020000000C801000030F1FFFFC2
:101810004C00000000460E104A880242810174C14B
:1018200042C8420E0000000028000000EC01000049
:1018300044E8FFFF0002000000420E80014A9204CB
:1018400093059406950796085297098101880289A5
:0818500003980A0000000000EB
:042000006003010078
:0420040018030100BC
:1020080000000000F42201005C230100C423010049
:1020180000000000000000000000000000000000B8
:1020280000000000000000000000000000000000A8
:102038000000000000000000000000000000000098
:102048000000000000000000000000000000000088
:102058000000000000000000000000000000000078
:102068000000000000000000000000000000000068
:102078000000000000000000000000000000000058
:102088000000000000000000000000000000000048
:102098000000000000000000000000000000000038
:1020A8000000000000000000010000000000000027
:1020B8000E33CDAB34126DE6ECDE05000B000000EC
:1020C8000000000000000000000000000000000008
:1020D80000000000000000000000000000000000F8
:1020E80000000000000000000000000000000000E8
:1020F80000000000000000000000000000000000D8
:040000031000027473
:00000001FF
