:020000021000EC
:10007400411106C622C4B70703801307F00FD8C383
:1000840023A2E7100547D8CB98CBB7170080804749
:100094000545A285B524A28509459D241305244060
:1000A400692E13057459A92E370703809307400658
:1000B40013064701854614C214CBFD17EDFFB7178D
:1000C400008080470545A285252CA28509450D2C75
:1000D400A2850D453524130524408526130574593E
:1000E4000526370703809307400613064701854614
:1000F40014C214CBFD17EDFFB717008080470545E8
:10010400A285FD2AA2850945E52AA2850D45CD2AA9
:10011400A2851145F522A2851545DD22130504604B
:10012400292E0565130505802295D92C37070380F0
:100134009307400613064701854614C214CBFD17E6
:10014400EDFFB717008080470545A285552AA28593
:1001540009457D22A2850D456522A28511454D22C2
:10016400A2851545712AA2851945592AA2851D45DE
:10017400412AA2850145E92AA2850545D12AA285FD
:100184000945F922A2850D45E122A2851145C9221E
:10019400A2851545752AA28519455D2AA2851D45A6
:1001A400452AA285014509243707038093074006A1
:1001B40013064701854614C214CBFD17EDFFB7079C
:1001C400008023A2070013000000B240224401452E
:1001D40041018280972100009381812F13858180C2
:1001E400138641823306A64093050000EF00003ECB
:1001F400170500001305052DEF00C027EF0080331D
:10020400032501009305410013060000EFF05FE6AB
:100214006F0080276780000017250000130545AB99
:10022400972700009387C7AA638AA7001703FFFFD5
:10023400130303DD63040300670003006780000009
:10024400172500001305C5A897250000938545A828
:10025400B385A54093D5254093072000B3C5F50287
:10026400638A05001703FFFF130383D963040300A4
:1002740067000300678000009727000083C7C7A5B5
:1002840063920704130101FF23261100EFF0DFF846
:100294009707FFFF9387C7D6638A070017050000F7
:1002A4001305855F9700FFFFE78080D58320C10099
:1002B40093071000172700002300F7A21301010180
:1002C40067800000678000009707FFFF938747D38C
:1002D40063860702130101FF97250000938505A09B
:1002E400170500001305455B232611009700FFFF47
:1002F400E78000D18320C100130101016FF05FF496
:1003040063C20502B707010093878732858393F799
:10031400F73F370700C0BA973A053E95B707008004
:1003240088C3828085473395A700B7070380C8CB6D
:1003340088CB370703809307000548CB08CBFD170C
:10034400EDFFB707008023A207001300000082809E
:1003540063C20502B707010093878737858393F744
:10036400F73F370700C0BA973A053E95B7070080B4
:1003740088C3828085473395A700B707038023AAE3
:10038400A71023A8A7103707038093070005232A83
:10039400A7102328A710FD17FDFBB707008023A291
:1003A400070013000000828063C20502B707010042
:1003B4009387073D858393F7F73F370700C0BA97C4
:1003C4003A053E95B707008088C3828085473395F8
:1003D400A700B707038023AAA72023A8A7203707CD
:1003E400038093070005232AA7202328A720FD17AD
:1003F400FDFBB707008023A20700130000008280E2
:1004040063410502B7070100938767428583370775
:10041400008093F7F73FBA97371700801CC348C38F
:100424008280B7070380054723A8E720B707008029
:1004340023A2070013000000828063410502B7076E
:1004440001009387074685833707008093F7F73FBA
:10045400BA97371700801CC348C38280B70703804C
:10046400054723AAE720B707008023A2070013004B
:100474000000828093050500930600001306000027
:10048400130500006F004022130101FF93050000D3
:10049400232481002326110013040500EF00002902
:1004A400972700009387C78203A507008327C50306
:1004B40063840700E780070013050400EF00403859
:1004C400130101FE971700009387C73D232C810079
:1004D400171400001304C43C33848740232A91007A
:1004E4002328210123263101232E110013542440F3
:1004F40093040000138907009309C0FF631094025A
:10050400032481018320C1018324410103290101C2
:100514008329C100130101026FF0DFCFB3873403D5
:1005240093841400B307F90083A7C7FFE78007008B
:100534006FF0DFFC130101FF2324810023229100CB
:1005440017140000130484359714000093840435B1
:10055400B3848440232021012326110093D4244012
:1005640013090000631099041714000013040433E2
:10057400971400009384C432B3848440EFF09FC97D
:1005840093D4244013090000631899028320C10006
:100594000324810083244100032901001301010184
:1005A4006780000083270400130919001304440022
:1005B400E78007006FF01FFB83270400130919006D
:1005C40013044400E78007006FF01FFC1303F000DE
:1005D40013070500637EC3029377F7006390070A4D
:1005E40063920508937606FF1376F600B386E60059
:1005F4002320B7002322B7002324B7002326B70003
:1006040013070701E366D7FE631406006780000042
:10061400B306C3409396260097020000B3865600A3
:100624006780C6002307B700A306B7002306B700F8
:10063400A305B7002305B700A304B7002304B7003C
:10064400A303B7002303B700A302B7002302B70034
:10065400A301B7002301B700A300B7002300B7002C
:100664006780000093F5F50F93968500B3E5D500F8
:1006740093960501B3E5D5006FF0DFF69396270056
:1006840097020000B386560093820000E78006FAC2
:1006940093800200938707FF3307F7403306F60081
:1006A400E378C3F66FF0DFF3971700009387476290
:1006B40003A7070013030500832787146396070025
:1006C4009307C7142324F71403A747001308F00162
:1006D4001305F0FF634AE80493182700630C030230
:1006E400338517012324C50803A8871813061000AF
:1006F4003316E6003368C80023A407192324D51051
:10070400930620006318D30083A6C71833E6C600F7
:1007140023A6C7181307170023A2E700B3871701FE
:1007240023A4B7001305000067800000130101FD36
:10073400971700009387C759232E310183A9070017
:10074400232C4101232A510123286101232611026C
:1007540023248102232291022320210323267101D1
:10076400930A0500138A0500130B100083A489144F
:10077400638C040003A444001309F4FF131424003D
:1007840033848400635809028320C1020324810254
:1007940083244102032901028329C101032A81011F
:1007A400832A4101032B0101832BC100130101039F
:1007B40067800000630C0A008327441063884701A4
:1007C4001309F9FF1304C4FF6FF0DFFB03A7440010
:1007D400832744001307F7FF631C270323A2240184
:1007E400E38007FE83A6841833172B0183AB4400F0
:1007F400B376D70063920602E780070003A744009C
:1008040083A78914E31477F7E38CF4FA6FF01FF6E7
:10081400232204006FF0DFFC83A6C4188325440858
:100824003377D7006318070013850A00E7800700B1
:100834006FF0DFFC13850500E78007006FF01FFCF5
:100844009305000013060000930600001307000040
:10085400930700009308D00573000000635205025B
:10086400130101FF23248100130405002326110032
:1008740033048040EF000001232085006F00000056
:100884006F000000971700009387C74403A5070073
:040894006780000079
:04089800000000005C
:04189C00CC02010079
:0418A0007C020100C5
:1018A80000000000941B0100FC1B0100641C0100E7
:1018B8000000000000000000000000000000000020
:1018C8000000000000000000000000000000000010
:1018D8000000000000000000000000000000000000
:1018E80000000000000000000000000000000000F0
:1018F80000000000000000000000000000000000E0
:1019080000000000000000000000000000000000CF
:1019180000000000000000000000000000000000BF
:1019280000000000000000000000000000000000AF
:10193800000000000000000000000000000000009F
:10194800000000000000000001000000000000008E
:101958000E33CDAB34126DE6ECDE05000B00000053
:10196800000000000000000000000000000000006F
:10197800000000000000000000000000000000005F
:10198800000000000000000000000000000000004F
:10199800000000000000000000000000000000003F
:04000003100001D810
:00000001FF
